:100000000C94002C0C94282C0C94282C0C94282C48
:100010000C94282C0C94282C0C94282C0C94282C10
:100020000C94282C0C94282C0C949B300C940D319F
:100030000C94282C0C94282C0C94282C0C94282CF0
:100040000C94282C0C94282C0C94282C0C94282CE0
:100050000C94282C0C94282C0C94282C0C944A33A7
:100060000C94282C0C94282C0C94282C0C94282CC0
:100070000C94282C0C94282C0C94282C0C94282CB0
:100080000C94282C0C94282C0C94282C0C94282CA0
:100090000C94282C0C94282C0C94282C0C94282C90
:1000A0000C94282C0C94282C0C94282C1E2E212ED9
:1000B000102E142E182E422E422E422E252E292E80
:1000C0002D2E332E372E422E3D2ED5F08D14A1C865
:1000D00081CFD9F1AF2000140213021202150207DA
:1000E0000208020A020A010B020B010902090104BB
:1000F000010C0106010000000000000000000000EB
:1001000000000000000000000000000000000000EF
:1001100000000000000000000000000000000000DF
:1001200000000000000000000000000000000000CF
:1001300000000000000000000000000000000000BF
:1001400000000000000000000000000000000000AF
:10015000000000000000000800080000000800087F
:100160000008000000080038007800780038001807
:1001700000180008000830183018303830183008DF
:1001800020080008000038183C1838183C183808B7
:100190003808300030003C183E183E183C183C1817
:1001A0003C08380838083C383C383C383C3838384B
:1001B00038183838309838383C783C78387838787F
:1001C000383830383038387838F83CF838F83878FB
:1001D00030783078303838783CF838F83C783878EF
:1001E0003878383832783C783C783CF83C783C7841
:1001F000383838383C383C783E783E783E783C3861
:100200003C383C383C383E783E783E783E783C3846
:100210003C383C383C383D783C783EF83C783C787B
:100220003C7838383C783DF83C783CF83CF83C78F1
:100230003878387838783DF83CF83CF83CF838F8AD
:100240003878387838F83D783CF83CF83CF83C7819
:10025000387838783C783F783C783EF83C783C7881
:100260003C383C783C383E783C783E783E783C7868
:100270003C383C383C383EF83E783E783E783C7816
:100280003C383C383C383EF83C783E783C783C780A
:100290003C7838783C783DF83C783EF83C783C78BF
:1002A0003878383838783C783C383E783E783C3876
:1002B0003C383C1838583E183E183E183E183E3818
:1002C0003E183E083E203F983F183F083F083F88B1
:1002D0003F083B1838083FB83F183F183F083F9881
:1002E0003B1838183C183FF83F183E183F183F9805
:1002F0003B1838183C183FF83F183E183F183F1875
:100300003B3838183C183FF83F183E183F183F1844
:1003100039383C183C183F783F183E183F183F08C2
:1003200039183C383C183F383F183E183F083D0804
:100330003D983C183C183F983E183E083F083D88C1
:100340003C883C183C083F983E083E083F083D0862
:100350003C883E183C083F983E083E083F083C88D1
:100360003C083E183C083F983E083E083F083C8841
:100370003C083E183C083F983E083E083F083C8831
:100380003C083E183C083F183E183E083F083D0810
:100390003C883C183C083F383E183E083E183D0853
:1003A0003D183C183C083E383E183E083E183F08B1
:1003B000391839183C183C383C183C183E183E187F
:1003C0003F183F0837083FB83C183E183C183E0815
:1003D0003F183E883F803FE83FC03F803F803FC09E
:1003E0003FC03FC03FE03FF83FF03FE03FF025A077
:1003F00030003C4038003FF83FF83FF83FF83FF806
:100400003FF83FF83FF83EF83CF83FF83FF83FF838
:100410003FF83FF83FF83FF83FF83EF83E783E7827
:100420003FF83FF83FF83FF83FF83FF83FF83E7895
:100430003E783F783FF83FF83FF83FF83FF83E7886
:100440003E783E783FF83FF83FF83FF83E783C78FA
:100450003E783FF83FF83FF83FF83C783C783EF86C
:100460003FF83FF83FF83FF83FF83E783C383E7899
:100470003FF83FF83FF83FF83FF83F783E383E38C6
:100480003F783FF83FF83FF83FF83FF83E383E38B6
:100490003E783FF83FF83FF83FF83FF83E783C3869
:1004A0003E783FF83FF803F801B80118018003C017
:1004B00001800000000003F801B80118018003C0AA
:1004C0000180000000003FF83FF81FF835D03000F1
:1004D00030000000000000002000300030803FE0CD
:1004E0003FF83FF010503F003F003E003F002FA07C
:1004F0003FF83FF83FF803F800F8027806F001F8FB
:1005000000F80138017803F800F800780138017824
:1005100000F80078009807F801F800F8017803382F
:1005200001B800F800F807F803F800F800F801F83F
:1005300001B800F8007806F006E80FF001F801F8BD
:1005400001F8007000F8004002E007E001F801F84F
:10055000017800E800F80000014003C001E000E07D
:1005600000E011782DF800000080018001C000C07B
:100570000DF800500000000000000180008005F030
:1005800000100000000000000000018000A002A098
:1005900000000000000000000000010001C0000099
:1005A00000000000000000000000010001C0000089
:1005B0000000000000000000000001800140000079
:1005C00000000000000000000000010001C0000069
:1005D00000000000000000000000010001C0000059
:1005E00000000000000000000000010001C0000049
:1005F0000000000000000000000001000180004039
:1006000000000000000000000000010001800080E8
:100610000000000000000000000001000180004018
:1006200000000000000000000000010001C0000008
:1006300000000000000000000000018000C0000079
:1006400000000000000000000000008001E0000049
:10065000000000000000000000400060007800087A
:10066000000000000000000000000060006800388A
:10067000000000000000000000000040006000706A
:10068000000030002000000000000040006000700A
:1006900000003000300000000000004000600070EA
:1006A00000003000300000000000004000400070FA
:1006B000200038003C0000000000004000400060C6
:1006C00020003C003C0000000000004000400060B2
:1006D00010003C003C0000000000004000400060B2
:1006E00010003C003C0000000000004000400060A2
:1006F00010003C003C000000000000400040006092
:1007000010003C003C000000000000400040006081
:1007100010003C003C000000000000400040006071
:1007200010003C003C000000000000400040006061
:1007300010003C003C000000000000400040006051
:1007400010003C003C000000000000400040006041
:1007500010003C003C000000000000400040006031
:1007600010003C003C000000000000400040006021
:1007700010003C003C000000000000400040006011
:1007800010003C003C000000000000400040006001
:1007900010003C003E0000000000004000400060EF
:1007A00010003C003E0000000000004000400060DF
:1007B00010003C003E0000000000004000400060CF
:1007C00010003C003E0000000000004000400060BF
:1007D00010003C003E0000000000004000400060AF
:1007E00010003C003E00000000000040006000409F
:1007F00010003C003E00000000000040006000408F
:1008000010003C003E00000000000040006000407E
:1008100010003C003E00000000000040006000406E
:1008200010003C003E00000000000040006000405E
:1008300010003C003E00000000000040006000404E
:1008400010003C003E00000000000040006000403E
:1008500010003E003C00000000000040006000402E
:1008600010003E003C00000000000040006000401E
:1008700010003E003C00000000000040006000400E
:1008800010003E003C0000000000004000C000409E
:1008900010003E003C0000000000004000C000408E
:1008A00010003E003C0000000000004000C000407E
:1008B00010003E003C00000000000080006000408E
:1008C00010003E003C00000000000080006000407E
:1008D00010003E003C00000000000080006000406E
:1008E00010003E003C00000000000080006000405E
:1008F00010003E003C00000000000080006000404E
:1009000010003E003E00000000000080004000603B
:1009100010003E003E00000000000080004000602B
:1009200010003E003E00000000000080004000601B
:1009300010003E003E00000000000080004000600B
:1009400010003E003E0000000000008000400060FB
:1009500010003E003E0000000000008000400060EB
:1009600010003E003E0000000000004000C00040BB
:1009700010003E003E0000000000004000C00040AB
:1009800010003E003E0000000000008000400060BB
:1009900010003E003E0000000000008000400060AB
:1009A00010003E003E0000000000004000C000407B
:1009B00010003E003E0000000000004000C000406B
:1009C00010003E003E0000000000004000C000405B
:1009D00010003E003E0000000000004000C000404B
:1009E00010003E003E0000000000004000C000403B
:1009F00010003E003E00000000000040008000604B
:100A000010003E003E00000000000040008000603A
:100A100010003E003E00000000000040008000602A
:100A200010003E003E00000000000040008000601A
:100A300010003E003E00000000000040008000600A
:100A400010003E003E0000000000004000800060FA
:100A500010003E003E0000000000004000800060EA
:100A600010003E003E0000000000004000800060DA
:100A700010003E003E0000000000004000800060CA
:100A800010003E003E0000000000004000800060BA
:100A900010003E003E0000000000004000800060AA
:100AA00010003E003E00000000000080004000C03A
:100AB00010003E003E00000000000080004000C02A
:100AC00010003E003E00000000000080004000C01A
:100AD00010003E003E00000000000080004000C00A
:100AE00010003E003E00000000000080004000C0FA
:100AF00010003E003E0000000000008000C00040EA
:100B000010003E003F000000000000C000400060F8
:100B100010003F003E0000000040004000700070E8
:100B20000010200021000020007000300078003804
:100B300000780028000000380008001801F80108BB
:100B400000000000000000100000000803F8024848
:100B500000000000000000000000000001F8033069
:100B600001000000000000000000008003F80130D8
:100B700001000000000000000000018002F80130C8
:100B80000100000000000000000003800278003037
:100B90000100010000000000000003800278003026
:100BA0000100010000000000000003800078001830
:100BB0000100010000000000000003A00078001800
:100BC0000000030001000000010003F800380000ED
:100BD0000000020001000000010003F800380000DE
:100BE000000002000100035002F8001000000000A5
:100BF00002000200000003F80030000000000000C6
:100C000002000200000000100000000000000000D0
:100C100002000200000000100000000000000000C0
:100C200002000200000000000000000000000000C0
:100C300002000000000000000000000000000200B0
:100C400002000000000000000000000000000200A0
:100C50000000000000000000000000000000020092
:100C60000000000000000000000000000000020082
:100C70000000000000000000000000000200020070
:100C8000000000000000000000000000020004005E
:100C9000000000000000000000000000020004004E
:100CA0000000000000000000000000000200020040
:100CB0000000000000000000000000000200020030
:100CC0000000000000000000000002000200000020
:100CD0000000000000000000000002000200000010
:100CE0000000000000000000000002000200000000
:100CF00000000000000000000000020001000000F1
:100D000000000000000000000000020001000000E0
:100D100000000000000000000000020001000000D0
:100D200000000000000000000000020000000000C1
:100D300000000000000000000000030000000000B0
:100D40000000000020000000010002000000200060
:100D500038003E003F80000001000200000020003B
:100D600038003E003F80000021003A003E003F80F6
:100D70003FC03FF03FF83E003E803EC03FF03FF8AE
:100D80003FF83FF83FF83FF83EF83EF83FF83FF8AD
:100D90003FF83FF83FF83FF83EF83EF83FF83FF89D
:100DA0003FF83FF83FF83FF83EF83F783FF83FF80C
:100DB0003FF83FF83FF83EF83EF83FF83FF83FF87D
:100DC0003FF83FF83FF83EF83F783FF83FF83FF8EC
:100DD0003FF83FF83FF83EF83F783FF83FF83FF8DC
:100DE0003FF83FF83FF83F783EB83FF83FF83FF80C
:100DF0003FF83FF83FF83F383EF83FF83FF83FF8FC
:100E00003FF83FF83FF83F783EF83FF83FF83FF8AB
:100E10003FF83FF83FF83F783EF83FF83FF83FF89B
:100E20003FF83FF83FF83F783F783FF83FF83FF80A
:100E30003FF83FF83FF83F783FB83FF83FF83FF8BA
:100E40003FF83FF83FF83FB83FB83FF83FF83FF86A
:100E50003FF83FF83FF83FB83FB83FF83FF83FF85A
:100E60003FF83FF83FF83FB83FF83FF83FF83FF80A
:100E70003FF83FF83FF83F983FF83FF83FF83FF81A
:100E80003FF83FF83FF83F783FF83FF83FF83FF82A
:100E90003FF83FF83FF83F783FF83FF83FF83FF81A
:100EA0003FF83FF83FF83F383FF83FF83FF83FF84A
:100EB0003FF83FF83FF83F383FF83FF83FF83FF83A
:100EC0003FF83FF83FF83FB83FB83FF83FF83FF8EA
:100ED0003FF83FF83FF83FB83FB83FF83FF83FF8DA
:100EE0003FF83FF83FF83F383F983FD83FF83FF88A
:100EF0003FF83FF83FF83FF83FF83EF839F83BF845
:100F00003BF83FF83FF83FF83FF83EF839F83BF838
:100F10003BF83FF83FF83FF83FF83DF83BF833F82F
:100F200037F837F83FF83FF83FF83BF837F833F831
:100F300037F837F837F80000000000000000000024
:100F40000000000000003FF83FF827F837F827F8C6
:100F500027F837F827F83FF837F833F833F827F849
:100F600033F833F833F83FF833F83BF833F833F815
:100F700033F833F831F83FF839F839F839F839F8F7
:100F800039F839F839F83FF83CF83CF83CF83CF8C7
:100F90003CF83CF83CF83FF83EF83E783E783CF8A8
:100FA0003EF83C783CF83FF83E783E783E783E7814
:100FB0003E783E783E783FF83E783E783E383E7840
:100FC0003E783E783E783FF83E783D783C383E7833
:100FD0003E783E383E783FF83E783F3838383E38E5
:100FE0003F383F383E383F783E783F3830383E38DB
:100FF0003E783F383E383FF83E383F383D383C3841
:101000003F183E383E383FF83E383F383F383F18AB
:101010003E183E183E183FF83F383E383F183F38DC
:101020003F183E183E383FF83F383E383F383F18AB
:101030003E183C183E183FF83F383E383F383C38A1
:1010400039183E383F183FF83F383F183D38383898
:101050003F183F383F383FF83F183D183C183F18BD
:101060003F183E183F183FF83D983E883C183F18FF
:101070003E183F083E083F803F003F003F803E80D3
:101080003E803E003E003F803F803F003F00398071
:101090003D803C003E003F883F003E003F0039005D
:1010A0003B003C803E003F803F003F003F003980D6
:1010B0003D003C803E003FC03F803F003FC03BC002
:1010C00039C03C803E003FE03FE03FB03EF83C7816
:1010D0003E783E783E303FF83FF839F83DF838F832
:1010E00038783C783C783FF83F783F783E783C78D9
:1010F0003C783C783E383FF83FF83BF83DF83C7888
:1011000038783C783E183FF83FF83FF83DF83CF817
:101110003C783C383E003F803F003F883F883C8819
:1011200038003E003F883F783E183E383E3832381F
:1011300034003E383E783FF83C383C783EF824682E
:1011400014003CF83C783FF83CF83C783CF80C78CC
:1011500014083CF03CF83FF83C783C783CF80C58DC
:1011600024083CF83CF83FF83C783C783EF80C58B2
:1011700020083CF03C783FF83C783C783EF8246806
:1011800010003E783C783FF83E783C783C7826600A
:1011900028103C783E783FF83E783C383E78346002
:1011A00004283C783E783FF83E383C383E78247836
:1011B00030003C783CF83EB83C183C383E783878F3
:1011C000302038C03CF83F183E183E183F383B38B6
:1011D00030283E603E783F883F083F083F883BB05C
:1011E0003C883E203F303FC03F803F003FC039C871
:1011F00038883E003F103FE03F803F803F8031C055
:101200003C983E003F883FE03F803F803BC031C07C
:101210003C083F003F983FF03FF830F838303B0043
:1012200039C03FF03FF03E003EC03FF03FF83FF88E
:101230003FF83FF838F83FF83FF83FF83FF83CF800
:1012400038783CF83FF83FF83CF83C783EF83FF8F7
:101250003FF83FF83FF83C783C783EF83FF83FF8DD
:101260003FF83FF83FF83FF83CF83C383CF83FF88F
:101270003FF83FF83FF800000000000000000000C9
:10128000078003C003000000000000000000000011
:101290000780036003A000000000000004000000BD
:1012A000088007E002A0000010000000000000001D
:1012B000088006A003600000080000000000000095
:1012C000000004400770000000000600000000005D
:1012D000000000000000000000000000000001000D
:1012E000000000000000000000000000018001007C
:1012F0000000000000000000000000000280030069
:10130000000000000000000000000000010001805B
:1013100000000000000000000000000003000100C9
:101320000000000000000000000000000180030039
:101330000000000000000000000000000380010029
:101340000000000000000000040003000380038090
:101350000120000000000000030003000180038062
:10136000030003C003C000000000010003000100EF
:101370000180030001800000000003000100030061
:1013800001800380030000000000010003000380CF
:1013900001800300038000000000010001800300C1
:1013A00003000180038000000000018001000700AD
:1013B000010003800300000000000580030003001B
:1013C000010003800300000000000580038003008B
:1013D000010003000180000000000580038003007D
:1013E0000100030001800000010003800100038070
:1013F000030003800380000003000380038003C018
:1014000001C003C00380000001A003C001B000E0E0
:1014100001C000E001E0000000C001F000D000F0D9
:1014200000E0007000E0004000E000E800E800702C
:10143000007000F001E00000000001C003C000C027
:1014400000E00070007000000000000000000000DC
:10145000000000000000000000000000000001008B
:10146000000000000000000000000000000001601B
:101470000000000000000000000000000028002024
:1014800000000000000000000000000800781DA817
:1014900009280DA00D2000380038003805282D98A7
:1014A0002AD828F80038004001E000F0096034E054
:1014B0000AF8237000F0004001E001E0014038E04C
:1014C0000DF002E801E0000001E001E0014038E039
:1014D0000EF002E801E0008001C001E009C034C064
:1014E0000BF800E001E0008001E001C010C01CE04A
:1014F00003F801E001C0008001C001E010C02CC869
:1015000007F001C001E0008001C001C010C02CD074
:1015100007E801E001C001000380030005201BD89B
:101520002380038003800100038003800B1003C825
:101530000100038003800000038001C003003BB072
:10154000038003800380000003800380011037D0F4
:1015500007880B800380000003800380019037A878
:1015600003800B800380000003800380019037A874
:1015700003800B8003800000038003C0010037B8A4
:1015800003800B8003800000038003C001003BB098
:10159000078803A00B800100038001C003003BB05B
:1015A00007C803200B800100038003C0010037D867
:1015B00007A0098003800100038003C0010037D821
:1015C00007A003800B20010003C00380010037D86F
:1015D00007A003800BA0010003C00380014037B0C7
:1015E000078805C01320010003C00380014037B8FD
:1015F0000B8007C00B20018003C0038031780FC02F
:10160000038017D013203E783C383C380EA0303889
:101610003C7830282CD83C783C383C380A803478E8
:101620003838386804483C383C181E500810307868
:101630003C3830380C4038183C581640081035F803
:101640003A38301814483C083C68040020303FD831
:101650003038301808483C601020200820083FF837
:1016600020082008082000000000000000083FF8C3
:10167000000000000000000000000000010836E843
:101680000000000000000000000000000920109889
:1016900000000000000000000000000009580038B1
:1016A00000180018005800000008000004E0006066
:1016B0000020006800E000000030000822C0204048
:1016C00020C000C001C00040002000001180108038
:1016D00010C0018001C00140000000001180108096
:1016E000008001C003C00180000000001180108054
:1016F000018003C0014000C000000300120013007D
:101700000700030000000070020002001200160033
:1017100003000200020000300080010013001300EB
:101720000320071000000020012001001300130017
:101730000380030000000020010006001380170052
:1017400003000300010000A0010003401200138009
:101750000B40030000000020010001C01300130033
:1017600013000300028000000180012013C0130059
:1017700013001380038000800180010003D0134018
:1017800013000B8013A00080030001001388136076
:101790001380038017800108030003000310074033
:1017A000034007000B8007900FC80FA80FD01FE061
:1017B0000FE0006000600000030007800F401FA0E2
:1017C0001F90049020800000030007800F800FB05E
:1017D0001F80168010800C001E003F003F003F203D
:1017E0003F803E00320000000E001E001E001E0062
:1017F0001E001E003E0808001C003E001C001E00CB
:101800003C003E003E0008001C003C003C003C0048
:101810001C003E003E0008001E001E001E001E00B0
:101820001E001E001F0004000E001E000E001F0000
:101830000E000F001F0006000F000F000F000F002A
:101840000F000F000F8004000E001F000E000F009D
:101850000E001F001F0000000E001E001E001E00D4
:101860001E001E801F0008001C003E001C001E0001
:101870003D803FC03F8008001C003C003C003C0015
:101880001E803FE03FE008001E001E001E001E00FC
:101890001E001E001F4004000E001E000E000F0060
:1018A0000E000FC01FE004000F000F000F000F001C
:1018B0000F000F000FE004001E001E000E000E00BF
:1018C0001E800FE01FE000000C001E001E001C0028
:1018D0001E801FE01FE008003C003C001C00380098
:1018E0003C003F803FE000001C003C003C00380012
:1018F0003C801FC03FE000001C001E001E001C00BA
:101900001E001E001FC000000E001E000E000E0074
:101910001E800FE00FF000000E000F000F000E0001
:101920000F000FE00FF004001C001E000E000C0062
:101930001F401FE01FF000000C001E001E001C00D6
:101940001E801FE03FE0080038003C003C003800EB
:101950003C003F803FE0100030003C003800380081
:1019600030003D803FE02000300038003800380073
:101970003000380038000000000030003000300037
:101980003000300020000000000000003100300076
:1019900020002000200000000000000002000100E4
:1019A00000000000000000000000000001800300B3
:1019B0000000000000000000000001000100010024
:1019C0000100000000000000000002000300018090
:1019D00000C000000000000000000000078003C0FD
:1019E00000000000000000000000000003C00780AD
:1019F00000000000000000000000000003800380E1
:101A0000060000000000000000000000010003804C
:101A1000010000000000000000000080008007C0FE
:101A2000018000000000000000000080008006C06F
:101A300003C00000000000000000008000801DE0E6
:101A400007C00000000000000080008000903EE021
:101A50001FE0004000000080028001C001B83FF894
:101A60003FF001C000000980038003281BF83FF805
:101A70003FF03FC0000009800780038801F83FF86D
:101A80003FF03F803C0011800980038005A80BF8DF
:101A90003FF83FF83FE011A01180118003800788D4
:101AA00003783FF83FF8130021A0218811801380AC
:101AB0000F800FA80FF800003380230021A02180A1
:101AC000218013800780000011803300218021E0F5
:101AD000218011801780000001003380210021E067
:101AE000218021801380000001003380210021E04B
:101AF0002180218013C0000001003300218021E8F3
:101B00002180118013C000000300330021A021C0F8
:101B10002180118013C000000300338021A021C068
:101B20003180138017C000000180198011D010E8A7
:101B300010C010C00BE0000008700CF008380878E6
:101B400008380C300478000806980638040806188F
:101B500004080608060803A8070007000600070097
:101B600006000300030003C007C003C0078003C0D2
:101B7000078003C003C001F801F801F801F001F883
:101B800001F001F801F801F800F801F800F801F897
:101B900000F801F800F801F800F801F800F801F881
:101BA00000F801F8027801F800F801F800F801F8EF
:101BB00000F80378027801F800F801F800F80378DB
:101BC000027802F8027801F800F801F8027802F8C9
:101BD000027802F8027801F800F802F8027802F8B8
:101BE000027802F8027801F800F802F8027802F8A8
:101BF00002780378027801F800F802F8027801F818
:101C000002780378027801F800F8017802F8017888
:101C100002780378027801F800F8017802780178F8
:101C200002780378027801F800F8017801780178E9
:101C300002780178027801F800F801F800F801381C
:101C400000B80178017801F801F801F801F801F80D
:101C500002F802F8027801F801F801F801F801F839
:101C600002F802F802F801F801F801F801F803F8A7
:101C700002F802F802F801F801F803F801F803F895
:101C800002F802F802F803F803F803F803F802F880
:101C900004F806F802F803F803F803F800F80078EF
:101CA00004F800F800F807F803F801F800F804F861
:101CB00000F8017800F803F803F804F83CF806F897
:101CC00007F80DF805F800780078013815980198A4
:101CD000017801B801380000000000000050000049
:101CE00000000000000000000000000000100000E4
:101CF00000000000000000000000000000000030B4
:101D0000001800000000000000000000004000E09B
:101D1000007000300018000000000180018000C049
:101D2000008000C000C0000003000100018001002D
:101D30000100010003000000030001000180018098
:101D40000100010003000000030001000180030006
:101D500001800100030000000300030001800380F4
:101D60000380030001800000030003000180038062
:101D70000380050001800000030001000180038052
:101D80000B8001000180000003000100018007803A
:101D90000380010001800000030001000180078032
:101DA00003800100018000000300018001000B801E
:101DB00003800180010000000300018001000B800E
:101DC00003800180010000000300018001000B80FE
:101DD00003800180010001000300018003000B80EB
:101DE0000380018003800100030001800B800B80D1
:101DF0000380018003800000038001000B800B80C2
:101E0000038001A003800000038001000B800F808D
:101E100003A0018003800000038001000B800B8081
:101E200003A0010003800000038001000B800B80F1
:101E300003A0030003800000018003000B800B80DF
:101E40000340030003800000038001000B800B802F
:101E50000360030003800000038009000B8007A0DB
:101E60000340030003800000038005200BA007C08F
:101E7000038003000380000007C0038007C00380C5
:101E8000030001800380048007C007C0078003C0EF
:101E90000380030003800EC00EE01FE00FE007C0C8
:101EA00007C0078003801D701EF03EF01FF01FE08A
:101EB0000FE00DC007C03EF03F783FF83EF01FF83E
:101EC0003FF00FE013903FF83FF83FF83FF83FF83E
:101ED0003FF83FF81FF03FF83FF83FF83FF83FF872
:101EE0003FF83FF83FF83FF83FF83FF83FF83FF83A
:101EF0003FF83FF83FF83FF83FF83FF83FF83FF82A
:101F00003FF83FF83FF83FF83FF83FF83FF83FF819
:101F10003FF83FF83FF83FF83FF83FF83FF83FF809
:101F20003BF83FF83FF817F813F81FF819F81BF8BB
:101F300019F81DF813F803F835F81FF83BF81BF8EB
:101F40001DF81FF808F807F833F81BF83BF82BF8D2
:101F50001FF81DF815F807F837F817F83BF81BF8C5
:101F60001BF81FF81BF803F817F81BF83FF82FF8B9
:101F70001FF81FF819F80BF833F81BF81BF839F89D
:101F800019F81CF8187800D81070186838301870D4
:101F90001A701C38186800001010183018383830C3
:101FA00008701C38182000001030183018382C60C9
:101FB0001C301C78082000000C600C301C70046081
:101FC0000C701C701E30000006800EF83C6826C0A5
:101FD00006400C701C780000028006C00EE01CF069
:101FE0001FF00CE00C700000028006C00C600D6059
:101FF00007C00C600C700000068006C00CE00D608D
:102000000FE00C600C700200064006C00CE0076098
:102010000FE00CE00C70040004A006C006C007C06E
:1020200007C00CE00C70040004A006C006C007C086
:1020300007C006C00C700400064006C006C007C0FA
:1020400007C006C00EF00600061007600EE00EC0C6
:102050000FC00DC005C007800F800F801E301EF01E
:102060003FE00FE007C007C01FE03FC03EC01E407A
:102070001F300FF007C01FF00FF01FF01CF01AE028
:102080001DE01D401F0007C00FF01F781DF836F03F
:102090003FF00BE00C801FC03FC03FE03FE03FE05F
:1020A0001FC01F0002803F803F803F003F803E00F6
:1020B0003A20008000003C003C003818200800084E
:1020C0000008001800183C003800383010180118BB
:1020D0000010001800183C00380038601030003044
:1020E0000030003000703C003800386010200120C3
:1020F0000030006000703C00380038601120006043
:102100000060006000703C00380038C01060006063
:102110000040006000E03C00380038C01040006023
:10212000004000E000E03C00380038C0104000C033
:10213000006000C000E03C00380038C012C0004021
:10214000006000C000E03C00380038C012C0004011
:1021500000C0006000E03C00380038C012C0004001
:1021600000C000C000E03C00380038C012C0004091
:1021700000C000C000E03C00380038C012C0004081
:1021800000C000C000E03C00380038C012C0004071
:1021900000C000C000E03C00380038C012C0004061
:1021A00000C000C000E03C00380038C012C0004051
:1021B00000C000C000E03C00380038C012C0004041
:1021C00000C0004000E03C00380038C012C00040B1
:1021D000004000C000E03C00380038C0106000C083
:1021E0000060004000E03C00380038201060012012
:1021F0000060006000703C003C003830103000305F
:102200000030003000783E003C003C0810180018F8
:102210000008001800183F001F801E000400000086
:102220000000000000000FC00FC007C00200000047
:1022300000000200000003F003F001F00040000085
:1022400001000000000000F800F8107810101800DD
:102250001000182018000038003802180208020088
:10226000030002000300001800380108010001000B
:1022700001100100018000180038010801000180F0
:102280000100018001800018003801080100018070
:102290000100018001800018003801080100018060
:1022A0000100018001800018001801080180010070
:1022B0000180018001800008000801000180018088
:1022C0000180018001800000000001800180018008
:1022D0000180018001800000008001800180018078
:1022E0000180018001800000010001C001800180A7
:1022F00001C0018001C00000018001C0018001C057
:1023000001C001C001C00000018001C0018001C006
:1023100001C001C001C00000018003800180018074
:1023200001C0038001C00000000001C003C001C063
:1023300003C003C007F000000380078007C00780C8
:1023400017C01FE007E00000001008001E003E104C
:102350003E003E003F00001000080040000020103A
:102360002000206031E000100048001000000180D3
:1023700003C003C007800058002002900328030018
:1023800003000E100F0001F800F802B800B80C5856
:102390001C20180818203FF83FF83FF83FF83FF896
:1023A0001FF81FF827F83FF83FF83FF83FF83FF8CD
:1023B0003FF83FF83FF83FF83FF83FF83FF83FF865
:1023C0003FF83FF83FF83FF83FF83FF83FF83FF855
:1023D0003FF83FF83FF83FF83FF83FF83FF83FF845
:1023E0003FF83FF83FF83FF83FF83FF83FF83FF835
:1023F0003FF836E82ED83FF83FF83FF83FF83FF86F
:102400003FF836E82EE83FF83FF83FF83FF83FF84E
:102410003FF836682F683FF83FF83FF83FF83FF83D
:102420003FF836682F683FF83FF83FF83FF83FF82D
:102430003FF836E82E683FF83FF83FF83FF83FF89E
:102440003FF836E82EE83FF83FF83FF83FF83FF80E
:102450003FF82EC82E683FF83FF83FF83FF83FF8A6
:102460003EE826E816E83FF83FF83FF83FF83FF827
:1024700036E82EE806E83FF83FF83FF83FF83EF828
:1024800026E82EE826C83FF83FF83FF83FF836E840
:1024900036E806E836C83FF83FF83FF83EF836C859
:1024A0000EE826C83EE83FF83FF83FF836E836D851
:1024B0000EC836D837E83FF83FF83FF836D82ED860
:1024C00026C836F836D83FF83FF83FF836C816D851
:1024D00026D836E837D83FF83FF83F6836D806D8D0
:1024E00036C8377837D83FF83FF837683758165826
:1024F00033C83EF817C83FF83FF8376837582348C5
:1025000036E83B7827C83FF83FF8366837682348F5
:1025100037783BC827F83FF83FF8376027683368BB
:102520003B682FE827F83FF83FF8376026E8336824
:102530003EE8276837F83FF83FE836682768336891
:102540003F6827E837F83FF8376836E826E8376805
:102550003B6827E837F83FF836F836E006E8376892
:102560003EE827E837F83FF836E836E806E836C8A8
:102570003EF827E837F83FF836E836C806E836D898
:1025800037E817D837F83FF82ED836D806D836D8D7
:1025900036D817D82FF83FF82DD82D980CD82EB84C
:1025A0002DD817B81FF83FF81DD81D981DB80D98E5
:1025B0002DF81F983FF83FF83BB83A383B783B3846
:1025C0003B383BF83B383FF8267833783478367818
:1025D0002678367837783FF81DF809F810F815F89E
:1025E0000CF808F838F83BF833F819F803F839F81C
:1025F00039F811F831F833F830F821F823F839F8C0
:1026000033F831F823F833F8307821F821F83BF823
:1026100039F831F831F833F83178207831F839F871
:1026200039F839F830F839F839F83038317839F87C
:1026300039F839F838F83DF839F83CF8381838B82E
:102640003DF838F838F83EF83C783E783C0838B821
:102650003EF83CF83C783E783E78341832383E7884
:102660003EF83E783C383F383E381A7818381E78A5
:102670001E781E781E383F981F181E180E380F3807
:102680000F380F180F183FE82FC02748270807C832
:1026900037C827C823803FF03BF039F0398039F044
:1026A0003DF039E031E03FF83DB83C783C503EE049
:1026B0003EF83CF838703FF83FF83E183E383F7817
:1026C0003F783E383E783FF81FB81F303F083FB88C
:1026D0003FB81F181F983FF81FF80FD80F901FC062
:1026E0000FD80F980F883FF82FF807E827C80FE09A
:1026F00007C807C807C83FF833F823E033F033E0D2
:1027000023E003E003E03FF839F039F039F039E035
:1027100023F001E000E03FF83CF03CF03CE039F011
:1027200038F001B020203FF83CF03CF03EF03CF89F
:1027300038F000F020103FF83CF83E703EF83C784E
:1027400038F802F820103FF83EF83CF83E783EF8A2
:102750003C7800F800503FF83E783E783E783E786E
:102760003878167800783FF83F783E383E783B3826
:1027700038781E7800783FF83F383E383E383A784F
:1027800038381E3805783FB83F383E383F18333860
:1027900038182F1805183FD83FC83F803FC83D80E4
:1027A0003C003F4003C03FF03FF03FE03FE03EF0E1
:1027B0003F203F803BF03FF83FF83FF83FF83FF8BD
:1027C0003F883FE03FE03FF83FF83FF83FF83FF8F1
:1027D0003FF83EF826C83FF83FF83FF83FF83FF88B
:1027E0003FF836E82EE83FF83FF83FF83FF83FF86B
:1027F00036E82EE806E83FF83FF83FF836D836D8F6
:1028000006D836C83EF83FF83FF8376837581358AF
:1028100036C83B7827D83FF83FF8376026683368DA
:102820003F6827E837F83FF836E836E806E836C864
:102830003EF827E837F83FF83B9839381DB819B803
:102840001FB81BB83FB833F833F831F803F83BF83A
:1028500033F831F823F839F839F838F8381839F8F6
:1028600039F839F838F83F383E381A381C381F38EC
:102870001E780F380E183FF83EF83E383E283E705E
:102880003E783E783C783FF827F827E027E027E0BD
:1028900023E007E803C03FF83CF03E703EF03CF810
:1028A00038F800F020103FF83F383E383E783B388B
:1028B0003C381E7802783FF83FF83FF03FF83FB8C9
:1028C0003F903FC03FD83FF83FF83FF83FF83D7892
:1028D0003838303820083FF83FF83FF83D78301856
:1028E0003018383838383FF83FF83FF83FF83CF8B0
:1028F0003018383838383FF83FF83FF83FF83C7820
:102900003018301838383FF83FF83FF83FF838783B
:102910003018381838383FF83FF83FF83C3830184E
:10292000381838383C183FF83C38381838183818F8
:102930003C183C183E383838381834483EE83EE8F1
:102940003FD83FE83FF800082440044827C037C874
:102950003FE83FC83FE000000000000004C006C0A0
:1029600007C00FE007C000000000044006C007C019
:102970000FC00FE007D000000000044006C007E0D1
:102980000FC00FE00FC000000060036007E007E029
:102990000FC007E003C000E001E007E007E003E04C
:1029A00003E003C001A001F003E00FF007E007F02F
:1029B0000020000000083FF81FF83FF81FF0003823
:1029C0000010081000283FF83FF83FF83FF803C018
:1029D0003838383838383FF83FF83FF83FF83EF895
:1029E0003018200808203FF83FF83FF83FF83EF83D
:1029F0003838301830183FF83FF83FB838183018DA
:102A000038083C183C183FF83CF838383818381863
:102A10003C183C183E7839F83C383C78245836C885
:102A20003F883FC83FC80468064004C00280238036
:102A3000378037C037C0000000000C0006600290ED
:102A4000038007C007C0000000000C400670028031
:102A5000038007C007C00C000630046002800280BB
:102A6000038007C007C0026002C0028003C007C025
:102A700003E003E003C00700030003C007C003E056
:102A800003E001E003E00100010003C003C003C054
:102A900001C001C003E0000000000180018001804E
:102AA00003000180018000000000002000A0002041
:102AB000003000300040000000000008002800083E
:102AC0000008000800100C000C001B001E001C0079
:102AD00004000000000000000000014001C00300ED
:102AE0000380038000000208020003083FF81980F9
:102AF00003D8037001F00618020007083FF82B48BE
:102B000003800700233007D80700070027A83FF8F5
:102B10002B00018007001FF807C007C00F802FE8B7
:102B200037E8078001003FF81FD80FE007F00FF0EB
:102B30003FF03ED822C03FF83FF81FF81FF80FD0F3
:102B40001EF83EF83EF83FF83FF83FF83EF81EF812
:102B50001EF83EF83EF83FF83FF83FF83CF83EF8E4
:102B60003CF83FF03FF83FF83FF83FF83CF83EF8BC
:102B70003EF83EF83FF83FF83FF83FF83EF83EF8A1
:102B80003EF83E783F783FF83FF83F783E783E7811
:102B90003F783E783F783FF83FF83F783E783E7880
:102BA0003F783E783F783FF83FF83F383E383F382F
:102BB0003E783E383F383FF83FF83F383E983E3841
:102BC0003F183C383E383FF83FB83F183E883E98A3
:102BD0003E183E183C083FF83FB83F183E883E98E4
:102BE0003E083E183C083FF83FB83F183E883E98E4
:102BF0003E183E083C183FF83FB83F183F083C9845
:102C00003E183C083E183FF83FB83F183E883B1836
:102C10003C1838183D083FF83FB83E183F981688D2
:102C200018183818391827F827B83718271823180C
:102C300000180118290833F839B832183B18311830
:102C40000018201839183DF83C783C383C383838A2
:102C5000383838383C383EF83EF83E783E783C7894
:102C6000303838183E783EF83E783E783E783E3828
:102C70003E183C383F783F783F383F383E983EB862
:102C80003E183E183E183FC83FC83FE03EC03EE0F9
:102C90003FC03FC03F803FF83FF03FF83EE83EE096
:102CA0003FE83F983FF03FF83FF83FF83EF83EF8E6
:102CB0003EF03FF83FF83FF83FF83FF83DF83DF869
:102CC0003CF83FF83FF83FF83FF83DF83DF83DF855
:102CD00039F839F83DF83FF83FF839F83BF83BF858
:102CE0003BF839F839F83FF83FF83BF83BF83BF848
:102CF00033F83BF831F83FF83BF83BF83BF83BF84A
:102D000033F833F833E03FF83BF83BF83BF83BF857
:102D10003BF833F839F83FF83FF83BF83BF83BF81D
:102D200033F83BF831C83FF83FF83BF83BF83BF845
:102D300033F833F833F83FF83FF83BF83BF83BF80B
:102D400033F83BF833983FF83BF83BF83BB83BB8D7
:102D50003B98339831B83FF83FF83BF83BB83B1805
:102D60003BB833B831983FF83FF83BF83BB83B18D5
:102D70003BB833B839983FF83FF83BF83BB83B18BD
:102D800033D83BB831983FF83FF83BF83BB83B9815
:102D900033B8339833B83FF83FF83BF83BB8339833
:102DA0003BB833B833983FF83FF83BF83BD83398FB
:102DB00033B833B833B83FF83FF83BF83BD83398D3
:102DC00033B833B833B83FF83FF83BF83BB83398E3
:102DD00033B833B833B83FF83BF83BF8399833B8D9
:102DE0003B98333833983FF839F839B839183138C7
:102DF0003938311833383FF839F838383838381816
:102E00003078383831383FF839F8383838383818A9
:102E10003078383831383FF839F838383838381899
:102E200030783878313837F830F8201831183008D1
:102E30002038303820183FF83FF83FF83FF829583D
:102E40003FF83FF83FF83FF83FF83FF83FF83FF8CA
:102E50003FF83FF83FF83FF83FF83FF83FF83FF8BA
:102E60003FF83FF83FF83FF83FF83C783318319887
:102E70003C783FF83FF83FF83FF83EF83118339878
:102E80003D783FF83FF83FF83FF83FF8393833983E
:102E90003FF83FF83FF83FF83FF83EF8211023880D
:102EA0003F783FF83FF83FF83D78200003800180ED
:102EB00025383FF83FF838002000018003C003C0E8
:102EC0000008007817F830180018020807880798DB
:102ED0000F180838007803F001F00040010003806B
:102EE00003800200060003800180010000000180D1
:102EF0000300010001000300010001000000018047
:102F000001000100018001000300000001000380B6
:102F10000100010003000100010000000380010026
:102F20000100030001000100010000000380010016
:102F30000100030000000100010000000380010007
:102F400001000300000001000000010001800100F9
:102F5000018001000000010000000100018001006B
:102F6000010001800000000000000100018001005C
:102F7000018001000000000000000100038001004A
:102F8000010001000000000000000180038001003A
:102F9000010003000300004001C003C001F00180F4
:102FA000018001800380002003F001F001F000980F
:102FB00003C001C001C003F801F801F801F806C818
:102FC00003C003C003C003F801F801F803D807C821
:102FD00003C001C001E003F801F807F80DD804C8E8
:102FE00003C003C001E003F800F809F809D81DC0C8
:102FF00003E001C000E000380038103818381FF82E
:103000001C38183800580000060007000FF807C8E1
:103010000F0007000400018003C003C003F803F899
:1030200003E003C00180003000180100020003002B
:10303000010000000000000000000100010003008A
:103040000100000000000000000001000200030079
:103050000100000000000000000003000300030066
:10306000030003000200000000000300030003004F
:1030700003000300030000000000010001800100C4
:1030800001800380030000000000018001800180B6
:10309000018001800180000000000080018001802B
:1030A000008001C00180000000800180018001805B
:1030B00001C00380008000000100030001000380C4
:1030C00007C0020001000000020003000300060028
:1030D00007000F8007000000000003000300070046
:1030E0000300060007000000010003000300038046
:1030F0000300038007000000038003800180038039
:1031000003C003C007C00000038001C0018003802A
:1031100003C003C003C00000038001C0018001C0E0
:1031200003C003C003C00000038001C0018003800E
:1031300007C0078001C000000380178025001780AA
:103140001F80038003C000000380038023002380CE
:103150001FC009C003C000000700070003800F0064
:103160003F80178007800000000000000000000082
:103170000000000000000000038003800380038043
:1031800007800780038000000380038003800380A2
:10319000078007800380000000000000000000009E
:1031A0000000000000000000028007800380038010
:1031B00007800FC0078000000280078003000380A3
:1031C00007800F80078000000500078007000300CC
:1031D0000F800F800F00000038003C0038003000E6
:1031E00038003800380038383C78387838383018AB
:1031F00020083018383838383C7838783838301863
:1032000020082018301838383C783878383830188A
:1032100020082018301830783C7838783838301842
:1032200030182018383830783878387838383838C6
:103230003038301838383078387838783838383886
:10324000303838383C383078307838783838383852
:1032500038783C383C3838F8307830783838387836
:103260003C783C383C7838783078303838383838E2
:1032700038783C383D3818F83078303830383838BD
:10328000393839B839F801F81078307810383838CA
:1032900038B839B839F827F803F8007810381838F2
:1032A00008181CF81E7827F807F823F800380418C7
:1032B0000C180638063837F827F823F83038001885
:1032C0000408261823183FF823F833F8307800183C
:1032D0000208260833083FF831F831F838B80808F2
:1032E0002008230031003DF839F838F83C782408EC
:1032F0002000318038803FF83CF83C783E38320876
:10330000300038C03C403FF83C783E383E583208E8
:1033100038003C403E603F783E383E383F28390018
:103320003C003E603E203F783F383E383F08390041
:103330003C203E203F303F783F383E383F08390040
:103340003C203E203F303F783E383F383F08390030
:103350003C203E203F303F783E383F383F08390020
:103360003C203E203F303F783E383E383F283900F1
:103370003C003E203F303F783E383E383F283B00FF
:103380003C003E203F303F783E383F383F083B000E
:103390003C203E203F303F783F383E383F083B00DE
:1033A0003C203E203F303FB83F383F183F183B009D
:1033B0003C003E303F303FB83F183F183F883A004E
:1033C00039003E303E303FB83F183F183F883A0042
:1033D00039003E303E303FB83F183F183F883A0032
:1033E00039003E303E303FB83F183F183F883D001F
:1033F00038003E203E303FB83F183F183F883D0020
:103400003A003C203E303FB83F183F183F883D000F
:103410003A0038203E303FB83F183F183F883D0003
:10342000360038203E303FB83F183F183D883E8078
:103430003C00372038303F983F883F083D803D8032
:103440003C003F1033103FC83F803F803C803EC06F
:103450003D003E003F983FC03F803F803EC03EE081
:103460003C803E003E803FE03FC03FC03F403E606A
:103470003EF03EC03E003FF03FF03FF03F603F6017
:103480003E383E783EF03FF837F83DF83EF83EF0E3
:103490003C703E783F783FF83FF83FF83FF83FF800
:1034A0003FF83F783F383FF83FF83FF83FF83FF8A4
:1034B0003FF83FF83FF83FF837F83FF83FF83FF85C
:1034C0003FF83FF83FF83FF83FF83FF83BF83FF848
:1034D0003FF83FF83FF83FF83FF83FF83FF83F78B4
:1034E0003FF83F783FF83FF83FF83FF83FF83EF8A5
:1034F0003F783FD83FF83FF83FF83FF83FF83FF0BC
:103500003FD83FB83F783FF83FF83FD83FD83FD843
:103510003FD83FD83FD83FF83FF83FF83DF83EF856
:103520003F383FC83FE03FF83FF83FF83CF83F786E
:103530003F383F803FE03FF83FF83CF83EF83F38E7
:103540003F883F803FC03FF83BF83DF83E783F085A
:103550003F803F803FC03FF83BF83DF83E003F00D2
:103560003F003F003F003FE83BE03C183E183E383C
:103570003E383E383E183FD83FB83C383E383C785D
:103580003E783C383C383FB83F783C383E783C7811
:103590003E78387830783FF83E783C783E783E7810
:1035A00038F8307832783FF83CF83C783CF83C7892
:1035B0003078203836383FF83DF838F83CF8307825
:1035C000207824383C783FF83DF838F83CF830F85B
:1035D00020F828783C783EF83EF83C7830F800F83F
:1035E00028F838783C783FB83F783C78207822F843
:1035F000387838B83C783FF83FB8223820383A78E5
:1036000038783E783CB83FF83FB8203830383A78C0
:103610003C783C383E383FF837B8303830383A7864
:103620003C383EB83CB83FF837D8303830383A7874
:103630003C383CB83EB83FF837D8303830383A7864
:103640003C783C383E383FF837D8303830383A7814
:103650003C783C383E383FF837D8303838383A78FC
:103660003C783C383E383FF833D8313838183A780F
:103670003C783C383E383FF833D8313838383A381F
:103680003C783C383EB83FF833D8313838183A786F
:103690003C383CB83E383FF833D8313838183A789F
:1036A0003C383C383CB83FF833E8313838183A38C1
:1036B0003C783C383CB83FF83BE8313838183A3869
:1036C0003C783C383CB83FF83BE8313838183A3859
:1036D0003C783C383CB83FF83BE8313838183A3849
:1036E0003C783C383CB83FF83BE8313838183B3838
:1036F0003C383C783CB83FF83BE8313838183B3828
:103700003C383C783CB83FF83BF8314838183B38F7
:103710003C383C783CB83FF83BF8314838183B38E7
:103720003C383C783CB83FF83BF8314838183B38D7
:103730003C383C783CB83FF83BF8314838183B38C7
:103740003C383C383CB83FF833F838A839183A18B8
:103750003C783C383CB83BF831F839A83A183B186B
:103760003C383E383CB83BF831F838A83B183B1899
:103770003C383E383CB839F838F83AA83B183C1881
:103780003E383E383A3839F83CF83AB83B183C18DD
:103790003E383E383C3839F83CF83AB83D183C38A9
:1037A0003E383C383C3839F83CF83AB83D183C389B
:1037B0003E383C783A3838F83CF83AB83D183C384E
:1037C0003E383C783C783CF83CF83AB83A183D38FA
:1037D0003E383C783E783CF83CF83AB83A183D38E8
:1037E0003E383C783C383CF83CF83AB83D183C1838
:1037F0003E383C783C383CF83CF838B83F083C1838
:103800003E383C383C783CF838F83CB83B083C182B
:103810003E183C383C783CF838783AF83B003C1885
:103820003E083A383C3838F838783AF83B003808DF
:103830003E083E083838387830783AD83B083900A6
:1038400034003E0034103078347832D83B083200EF
:103850003C0036003C003078347836C833802A008B
:1038600038002C003E002438267807C0278012003C
:10387000190018001C000C380EF00F400FA00700B4
:103880002200300038001C781EF01FE00F800F006F
:103890000600000020003E783EF83FE83FC03F8031
:1038A0001F000E0000003E783FF83FF83EF83FF062
:1038B0003FC03FC03F803F783FF83FF83EF83EF8BA
:1038C0003FF83FF83FF83FF83FF83FF83FF83EF841
:1038D0003FF83FF83FF83FF83FF83FF83FF83EF831
:1038E0003FF83FF83FF83FF83FF83FF83FF83EF821
:1038F0003EF83FF83FF83FF83FF83FF83FF83EF812
:103900003EF83FF83FF83FF83FF83FF83FF83FF800
:103910003EF83FF83FF83FF83FF83FF83FF83FF8F0
:103920003EF83FF83FF83FF83FF83FF83FF83FF8E0
:103930003EF83FF83FF83FF83FF83FF83FF83FF8D0
:103940003EF83EF83FF83FF83FF83FF83FF83FF8C1
:103950003EF83EF83FF83FF83FF83FF83FF83FF8B1
:103960003EF83EF83FF83FF83FF83FF83FF83FF8A1
:103970003EF83EF83FF83FF83FF83FF83FF83FF891
:103980003EF83EF83FF83FF83FF83FF83FF83EF882
:103990003EF83EF83FF83FF83FF83FF83FF83EF872
:1039A0003EF83EF83FF83FF83FF83FF83FF83EF862
:1039B0003EF83EF83FF83FF83FF83FF83EF83EF853
:1039C0003EF83EF83EF83FF83FF83FF83EF83EF844
:1039D0003E783E783EF83FF83FF83F783EF83E7834
:1039E0003E783E783E783FF83F783F783E783E78A4
:1039F0003E783F383E383FF83F783F383E783D7854
:103A00003E783F383E383FF83F783F383E783D7843
:103A10003E783F383E383FF83F783F383E783D7833
:103A20003C783F383E383FF83F783F383D783E7825
:103A30003C783F383E383FF83F783F383D783C7817
:103A40003D783E383F383FF83E783F383F783C7805
:103A50003D783E383F383FF83E783F383F783C78F5
:103A60003D783D383E383FF83E783F383F783C78E7
:103A70003C783D383E383FF83E383F383F783D7817
:103A80003C783D383D383FF83E383F383F383A784B
:103A90003C7839383E383FB83F383F383F383B787C
:103AA00038783D3839383FB83F183F383F383B38D1
:103AB000387839383D383FB83F183F183F383B38E1
:103AC0003A78383839383F183F183F983F383B38F4
:103AD0003A3838783B383F183F183F983F183F38FE
:103AE0003B38383839383F983F083F983F183F38BF
:103AF0003B38383839383F883F983F883F183F383F
:103B00003B38393838183F883F883F983F183F384E
:103B10003B38391838183F883F883F883F983F38EE
:103B20003B18391838183F883FC83F883F983F985E
:103B300039183A1839083FC83FC03F883F983D9828
:103B400039083C083C803FC03FC83F883F983D88CB
:103B50003C0838C03E003FC03FC83FC83DC83D009C
:103B60003C403E003E003FC03FE03FC03D803C2027
:103B70003C403F003E003FE03FE03FC03C903E60A5
:103B80003E003F003F803FF03FC03D903EE03E2082
:103B90003F003F803FC03FE83EF83E703F103F008F
:103BA0003FC03FF83FF83FF83EF83E783F083F9867
:103BB0003FF83FF83FF83FF83FF83EF83C783F18B1
:103BC0003F983FF83FF83FF83FF83FF83DF83C5842
:103BD0003F183FF83FF83FF83FF83FF83FF83FF80D
:103BE0003CB83E383FF83FF83FF83FF83FF83FF821
:103BF0003CB83E383FF83FF83FF83FF83FF83DF813
:103C00003CB83E783FB83FF83FF83FF83FF83DF802
:103C10003C383EB83FF83FF83FF83FF83DF83CF8F5
:103C20003E383F383FF83FF83FF83FF83DF83CF862
:103C30003E383E783FB83FF83FF83DF83DF83C78D5
:103C40003E783E583FF83FF83FF83CF83EF83E7863
:103C50003E783E783FB83FF83DF83CF83EF83E7875
:103C60003C783FF83F783FF83EF83EF83CF83EF8A5
:103C70003C783EF83FF83FF83EF83CF83E783E7816
:103C80003C783DF83EF83FF83E783E783E783E7806
:103C90003C3838383EF83FF83CF83E783E783C38BF
:103CA0003E783E783C183FF83E383E383F183C1886
:103CB0003F083F383E183FF83FF83E783B383D1804
:103CC0003E183F083E183FF83F383F383B183D0844
:103CD0003E883E083F983FC03FC03FE03CA03F4089
:103CE0003FE03FF03FF03FE03FE03FF039F83E007B
:103CF0003FF03FF83FF83BF838F83E003F803FF098
:103D00003FF83FF83FF83FF83FF83DF83C183F8058
:103D10003FF03FF83FF83FF83FF83FF83FF83FF8F3
:103D20003CF83C383F803FF83FF83FF83FF83FF819
:103D30003FF83FE03FF8380038583EF83EF83DF88D
:103D40003FF83FF83FF83E383CF83CF83DF83DF886
:103D50003EF83FF83FF83EF83CF83DF83DF83DF8B6
:103D60003FF83FF83FF83EF83CF83DF83DF83DF8A5
:103D70003FF83FF83FF83CF83DF83DF83DF83FF894
:103D80003FF83FF83FF83CF83DF83DF83DF83FF884
:103D90003FF83FF83FF83CF83CF83DF83DF83EF876
:103DA0003FF83FF83FF83FF83FF83CF83CF83DF863
:103DB0003DF83EF83FF83FF83FF83FF83FF83CF851
:103DC0003CF8064003003FF83CF83EF83CF8102869
:103DD0000000030003003DF83CF8387800000000C4
:103DE0000000000002003CF8303800000000000035
:103DF0000000000000003878000000000000000013
:103E00000000000000002828000000000000000062
:103E100000000000000000000000000000000000A2
:103E20000000000000000000000000000000000092
:103E30000000000000000000000000000000000082
:103E40000000000000000000000000000000000072
:103E50000000000000000000000000000000000062
:103E60000000000000000000000000000000000052
:103E70000000000000000000000000000000000042
:103E80000000000000000000000000000000000032
:103E90000000000000000000000000000000000022
:103EA00000000040000000000000000000000000D2
:103EB00000000400000000000000000000000000FE
:103EC00000000000000000000000000000000000F2
:103ED00000000000000000000000000000000000E2
:103EE0000000000020000000000000002000000092
:103EF0000000000020000000000020003000200032
:103F000020002000200000000000380038003000B1
:103F1000100030001000000008001C003C001800D9
:103F200018003800100000000C001E001C001C00CF
:103F300008001C00380000000E001E001E000C00CF
:103F40000C001C001C0000000F001F000E000C00E5
:103F50000C001C001C0002000F000F000E000400EB
:103F60000C001C001C0005000F000F000E000400D8
:103F70000C001C001C0006000F001E000C000600B8
:103F80000C001C001E0006000E001C00160006009F
:103F900004001E001E0006001C001C001600060087
:103FA00004001E000E0004000E001C00160002009B
:103FB00006001E000E0000000000000000000000CF
:103FC00000000000000002000E000E001A000300B6
:103FD00006000E001E0000000000000000000000AF
:103FE000000000000000020007000E000A000300AD
:103FF00003000E000F000000014003E003E0014059
:10400000030007000700000000000100010001C0DC
:1040100003E00700070000000000018001000180AC
:1040200001A0030007800000000001800100018062
:1040300001A0038007800000000001800080018053
:104040000100038007800000008000800080018064
:104050000080038003C00000008001000180018017
:104060000080038003800000010003803D80018008
:104070000080018003C00000018000C01DC020C07E
:10408000086000E000E0000000000030013036B0C1
:1040900000380010003800000000000000501FA889
:1040A00000000000000000000000000000002FF8E9
:1040B0000A9000000000008000800000000005A8B9
:1040C0001FF8000000000098019803380730061020
:1040D0002FE015780000019801B801B00370066068
:1040E0000EE03FF0004803B000A001A001600360B3
:1040F0002F601098000001F000F8009800B80178D7
:104100000A98201800180070007000700070157078
:10411000207820782078001000380070357020F06A
:104120002078207020E800000000147011603060DA
:104130001070306810C00000004004C018C010F0BB
:10414000106010C818C000000180098031C010E064
:10415000109011881180000001800700318021E05B
:104160003110118013000000010003002B0021C05A
:1041700021A0311023800000010003002B0021C08A
:1041800021A021102380000003000300170001C0BC
:1041900001E0011003000000030007001700038086
:1041A00001E001A003080200070007002F00030040
:1041B00003C003E003280200070007002F000700E8
:1041C00003C003E00350020007000F002E000700A9
:1041D00003C003E00350020007000F002E00078019
:1041E00003C003E00350020007000F002F0003008C
:1041F00003C003E003600200038007002F00038078
:1042000003C003E00370018003C013800B800180B2
:1042100003E001F001D001C001E02BC0038000E009
:1042200001F000F801D800F00AF032E000E0207858
:1042300000F8007800683B7830F8203820382038C3
:1042400020382038207830183018300830182008EE
:1042500020082018201830003000300030003000D6
:1042600020003000300830003000300030001000F6
:1042700018001000080018001800180008000C00B2
:104280000400000000000C00060004000200000012
:10429000000000000000020002000000000000001A
:1042A000000000000000000000000000000000000E
:1042B00000000000000000000000000000000000FE
:1042C00000000000000000000000000000000000EE
:1042D00000000000000000000000000000000000DE
:1042E00000000000000000000000000000000000CE
:1042F00000000000000000000000010000000000BD
:1043000000000000000000000000000000000100AC
:104310000100000000000000000000000100038018
:1043200007C003800000000000000000002005001E
:1043300007C0028000000000000000000000001024
:104340000880082008200000000000000000000095
:104350000000028006C00000000000000000000015
:10436000010003000920000000000000000001001F
:104370000100010003000000000000000000010037
:1043800001000100038000000000000000000100A7
:104390000100010007800000000000000000010093
:1043A00001000100032000000000000000000100E7
:1043B00001000100030000000000000000000100F7
:1043C0000100010003800000000000000000010067
:1043D0000100018003000000000000000000010057
:1043E0000100018003000000000000000100010046
:1043F0000100030001800000000000000100010036
:104400000100030003800000000000000100010023
:104410000100038003000000000000000100010013
:104420000100038003000000000000000100010003
:1044300001000380030000000000000001000100F3
:104440000180030003800000000000000100010063
:1044500003000180030000000000000001000100D3
:104460000300018003800000000000000100010043
:104470000300018003800000000001000100010032
:1044800003000380030000000000010001000100A0
:10449000038003000380000000000100010003000E
:1044A000030003800300000000000100030001007E
:1044B00003800380030000000000030001000300EC
:1044C00003800380030000000000030003000300DA
:1044D00003800700038000000000030003000300C6
:1044E00003800780030000000000030003000300B6
:1044F00007800580030000000000030003000300A4
:1045000007800B000380000000000700020003008A
:1045100007800B800B000000000007000300030071
:10452000078005800B000000000007000300030067
:10453000078007800D8000000000070003000300D3
:10454000038007800F800000000007000300038045
:1045500003800780078000000000038003000380C1
:10456000038003C007800000008003800180038077
:1045700003C003C003C00000014001C000C001E04F
:1045800001E001F003E0000000A000E000E001F025
:1045900001F001F801F80000013801180138033872
:1045A00001B8037801F802000180020801800308C5
:1045B000039803B0032802800280028002800380F7
:1045C000038003800380068002C0068002C007804B
:1045D00003C0078003C0064006C006C006C007C06F
:1045E00007C007C007C00E600EE00CC006600FE0F9
:1045F0000FE00FC00FE00E600EE01E600C700FE0C9
:104600000FE01FE00FE01E701E701D701E601EF098
:104610001FF01FF01FE01EF01E303E701E701E7057
:104620003FF01FF01FF03E783E383E783C783E78F1
:104630003FF83FF83FF83E383E383E783D783A380C
:104640003FF83FF83FF83E383E383E783D383A383C
:104650003FF83FF83FF83E383E383E383D383B188B
:104660003AF83FF83FF83E383E383E383D183B18A0
:104670003AF83FF83FF83E303E383E303D183A10A9
:104680003BF83FF03FF83C703E303C703D103A3014
:104690003BF03FF03FF03C703CF03C7038603AF04B
:1046A0003BF03FE03FF039E039E038E030E03BE01C
:1046B0003FE03FE03FE033C033E033C021E03FC0A4
:1046C0003FE03FC03FE037C027C023C037C03FC0F6
:1046D0003FC03FC83FC82780278027802FC03F802A
:1046E0003F883F983F982F80278027002F803F806A
:1046F0003F103F983F982F0027002F002F003F00CA
:104700003F183F183F102F002F002F002F003F00B1
:104710003F103F183F102F002E002F002F003E00AB
:104720003F103F183E102E002F002E002F003E009D
:104730003F103E183F102E002F002E003F003E007D
:104740003F103E183F102E002F002E003F003E006D
:104750003F103E183F102E002F002E003F003E005D
:104760003F103E183F102E002F002E003F003E004D
:104770003F103E183F102E002F002E003F003E003D
:104780003F103E183F102E002F002E003F003E002D
:104790003F103E103F102E002F002E003F003E0025
:1047A0003F103E103F102E002F002E003F003E0015
:1047B0003F103E103F1004000B0025000A002500AA
:1047C0001210150015000000030001000180010017
:1047D00001000300010000000300030001800380CA
:1047E00001800300018000000300030001800380BA
:1047F00003800500018000000300030001800380A6
:104800000580018003000000030001000180078093
:104810000380010001800000030001000180078087
:1048200003800100018000000300010001800B8073
:1048300003800180010000000300018001800B80E3
:1048400003800180010000000300018001000B8053
:1048500003800180010000000300018003000B8041
:1048600003800180030001000300018003800B80AE
:104870000380018003800080030001800B800B8097
:104880000380018003800000038001000B800F8003
:10489000038001A003800000038001000B800B80D7
:1048A00007A0018003800000038001000B800B80C3
:1048B00003A0010003800000018003000B800B8037
:1048C0000340030003800000038001000B800B8085
:1048D00003A0030003800000038009000B800BA0ED
:1048E0000380030003800000038009000BA007A0E1
:1048F0000380030003800000038007C0058003C01D
:10490000030001800380020007C007C00780038006
:104910000380010003800EE00EC00FE007C007C057
:104920000780038003801D701EF01EF01FE00FE063
:104930000FE007C007C02EF03FF03EF83EF01FF03A
:104940001FE01BB00FE01FF83FF83FF83FF83FF8BB
:104950003EF81FF80FF03FF83FF83FF83FF83FF8F8
:104960003FF83FF83FF83FF83FF83FF83FF83FF88F
:104970003FF83FF83FF83FF83FF83FF83FF83FF87F
:104980003FF83FF83FF83FF83FF83FF83FF83FF86F
:104990003FF83FF83FF83FF83FF83FF83FF83FF85F
:1049A0003FF83FF83FF83FF83FF83FF83FF83FF84F
:1049B0003FF83FF83FF83FF83FF83FF83FF83FF83F
:1049C0003BF83FF83FF83FF83DF81FF81BF81FF899
:1049D0001FF83DF80BF817F813F81FF819F81BF833
:1049E0001DF81BF819F803F811F81BF83BF81BF831
:1049F0001FF81DF809F803F835F81FF83BF81BF805
:104A00001DF81FF809F803F833F81BF83BF82BF8EA
:104A10001DF81DF813F807F833F81BF83BF82BF8CE
:104A20001FF81DF815F803F833F81BF83BF82FF8BA
:104A30001FF81DF815F807F837F817F83BF81BF8BA
:104A40001BF81FF81BF803F833F81BF83BF81BF8AA
:104A50001FF81DF81BF803F817F81BF83FF82FF89C
:104A60001FF81FF819F80CF835F81BF83BF82DF86B
:104A70001BF81DF81AF80BF833F81BF81BF839F877
:104A800019F81CF8187803F813F819F838E81870B2
:104A900018781CB818F000D81070186838301870E2
:104AA0001A701C7818280000101018301830383090
:104AB00008301C3818200000101018301838383012
:104AC00008701C38182000001010183018382820E2
:104AD0001C701C78182000001030183018382C601A
:104AE0001C301C7808200000083008301C701C3076
:104AF0000C701C700C2000000C600C301C700460EA
:104B00000C701C701E30000004601C783448044097
:104B10000C700C783C78000006800EF83C6826C0CB
:104B200006400C701C78000002800EE01CF03D78FE
:104B30002FC80C600C700000028006C00EE01CF054
:104B40001FF00CE00C700000028006C00C600D60CD
:104B50000FE00CE00C700000028006C00C600D60DD
:104B600007C00C600C700000028006C00C600D6075
:104B70000FE00C600C700000068006C00CE00D60B9
:104B80000FE00C600C700200064006C00CE00EE066
:104B90000FE00C600C700200064006C00CE00760DD
:104BA0000FE00CE00C700400064006C006C007C011
:104BB0000EE006E00C70040004A006C006C007C0AA
:104BC00007C00CE00C70040004A006C006C007C0BB
:104BD00007C006C00C70040004A006C006C007C0D1
:104BE00007C006C00C700600061006E006C00FC025
:104BF00007C00EC00CC0070007000F280E701FE092
:104C00001FE01FC0038007C01FC01FC03EC03E1072
:104C10001FF00FF007C01FE01FF01FE01EE01CE0B8
:104C20001DC00E000FE007C00FF81DF81A7036F017
:104C30003BF01FC004800FC01FE03FE03FF01FF0BB
:104C40001FE007C000003F803FC03FC03F803F8063
:104C50003F20140000803E003C003C08390800085A
:104C60000008000800083C0038003830111800180F
:104C70000018001800183C003800383010B0003020
:104C80000030003000383C0038003860112000301F
:104C90000030006000703C00380038601120006077
:104CA0000020006000703C00380038C010600060D8
:104CB0000060006000603C00380038C01060006098
:104CC000006000C000E03C003840384010C00040A8
:104CD00000C0006000E03C00380038C010C000C0D8
:104CE000006000C000E03C00380038C012C0004046
:104CF00000C0006000E03C00380038C012C0004036
:104D000000C000C000E03C00380038C012C00040C5
:104D100000C000C000E03C00380038C012C000C035
:104D2000004000C000E03C00380038C012C000C0A5
:104D3000004000C000E03C00380038C012C0004015
:104D400000C000C000E03C00380038C012C0004085
:104D500000C000C000E03C00380038C012C0004075
:104D600000C0004000E03C00380038C012C00040E5
:104D7000004000C000E03C00380038C010C00260B5
:104D8000004000C000E03C00380038601060006067
:104D90000060006000E03C003810382012200070F5
:104DA00008200130007838203C1038182E90081068
:104DB00025100AC8053038383A183E082B081E401E
:104DC0001E100F0007C03F182D081B883F081E004B
:104DD0001C881E400E000FF81F683FA83BE0300003
:104DE0001208020800180BF001F004F808F801B8E6
:104DF00001B820F8302820002090004800180FF853
:104E00000DF82DF03FF03E083F0033003F003E001C
:104E10003E603E001F001FF83FF83F9821F020E061
:104E200004000400000800700678007800F801F81B
:104E300003F8033823F0000014003E00362037004A
:104E40003F003FD83FF83EE03EC03FC03F803C00BF
:104E500038003100310003F801F808F808F801D8EB
:104E6000019800F80078011801080018003807F8C8
:104E70000FF80CF80EF8000008203C203E003F0020
:104E8000330037D83FF83E003E003F003730260061
:104E90003E003F003F003E003F003E0027203630EE
:104EA0003F003E003F003C003C003C0018C01C603E
:104EB0003C003C00380038003800388038C038F0FA
:104EC000389038003800300030003800308032E050
:104ED000302038003000300030003000308030C0EA
:104EE000306030003000300030003800304030405A
:104EF00031703800300038003800380038403860F1
:104F00003850380038003C003C303CB00C181C00D5
:104F10003C003C003C003FE03FE03FE03CE03CE048
:104F20003FE03FE03FE03FF83FF83EF83C783CB8D8
:104F300000F801F801F807F807F80FF80FF807B8BC
:104F4000003800F800F83FF839F831F833F839B88C
:104F50003838387838783FF83DF838F839F839B8C3
:104F60003C38387839383FF83DF83CF839F83DB8E6
:104F70003C783C383C783FF83C7838F83CF83C7852
:104F80003C783C783C780000000000000000000005
:104F90000000000000000000000000000000000011
:104FA0000000000000000000000000000000000001
:104FB00000000000000000000000000000000000F1
:104FC00000000000000000000000000000000000E1
:104FD00000000000000000000000000000000000D1
:104FE00000000000000000000000000000000000C1
:104FF00000000000000000000000000000000000B1
:1050000000000000000000000000000000000000A0
:105010000000000000000000000000000000000090
:105020000000000000000000000000000000000080
:105030000000000000000000000000000000000070
:105040000000000000000000000000000000000060
:105050000000000000000000000000000000000050
:105060000000000000000000000000000000000040
:105070000000000000000000000000000000000030
:105080000000000000000000000000000000000020
:105090000000000000000000000000000000000010
:1050A000000000000000021010800120109002009B
:1050B00010500008104036D8136821A832B012D81A
:1050C000306810B020D83FF833F833F833F832F8AE
:1050D00030F830F832783FF833F833F833F832F8F4
:1050E00030F830F832783FF833F833F833F832F8E4
:1050F00030F830F832783FF833F833F833F832F8D4
:1051000030F830F832783FF833F833F833F832F8C3
:1051100030F830F832783FF833F833F833F832F8B3
:1051200030F830F832783FF833F833F833F832F8A3
:1051300030F830F832783FF833F833F833F832F893
:1051400030F830F832783FF833F833F833F832F883
:1051500030F830F832783FF833F833F833F832F873
:1051600030F830F832783FF833F833F833F832F863
:1051700030F830F832783FF833F833F833F832F853
:1051800030F830F832783FF833F833F833F832F843
:1051900030F830F832783FF833F833F833F832F833
:1051A00030F830F832783FF833F833F833F832F823
:1051B00030F830F832783FF833F833F833F832F813
:1051C00030F830F832783FF833F833F833F832F803
:1051D00030F830F8327836D8136821A832B012D8B7
:1051E000306810B020D8021010800120109002000A
:1051F00010500008104000000000000000000000F7
:1052000000000000000000000000003E5B4F5B3E1D
:105210003E6B4F6B3E1C3E7C3E1C183C7E3C181C7B
:10522000577D571C1C5E7F5E1C00183C1800FFE772
:10523000C3E7FF0018241800FFE7DBE7FF30483A18
:10524000060E2629792926407F050507407F05257A
:105250003F5A3CE73C5A7F3E1C1C08081C1C3E7F02
:1052600014227F22145F5F005F5F06097F017F00C9
:105270006689956A606060606094A2FFA2940804E9
:105280007E040810207E201008082A1C08081C2A0A
:1052900008081E101010100C1E0C1E0C30383E3862
:1052A00030060E3E0E06000000000000005F000009
:1052B0000007000700147F147F14242A7F2A12237A
:1052C0001308646236495620500008070300001C8A
:1052D0002241000041221C002A1C7F1C2A08083E93
:1052E00008080080703000080808080800006060A6
:1052F0000020100804023E5149453E00427F400014
:1053000072494949462141494D331814127F1027EB
:10531000454545393C4A494931412111090736493A
:10532000494936464949291E00001400000040340E
:105330000000000814224114141414140041221413
:105340000802015909063E415D594E7C1211127C3A
:105350007F494949363E414141227F4141413E7F9B
:10536000494949417F090909013E414151737F087B
:1053700008087F00417F41002040413F017F081421
:1053800022417F404040407F021C027F7F04081082
:105390007F3E4141413E7F090909063E4151215E60
:1053A0007F09192946264949493203017F01033FF4
:1053B0004040403F1F2040201F3F4038403F631483
:1053C00008146303047804036159494D43007F4185
:1053D00041410204081020004141417F04020102C2
:1053E00004404040404000030708002054547840E7
:1053F0007F284444383844444428384444287F387B
:105400005454541800087E090218A4A49C787F08FC
:1054100004047800447D40002040403D007F102877
:10542000440000417F40007C047804787C08040438
:10543000783844444438FC1824241818242418FCD0
:105440007C08040408485454542404043F44243C75
:105450004040207C1C2040201C3C4030403C4428E4
:105460001028444C9090907C4464544C440008367E
:1054700041000000770000004136080002010204EC
:10548000023C2623263C1EA1A161123A4040207A0C
:105490003854545559215555794121545478412156
:1054A0005554784020545579400C1E52721239558B
:1054B0005555593954545459395554545800004588
:1054C0007C410002457D420001457C40F0292429B1
:1054D000F0F0282528F07C545545002054547C5485
:1054E0007C0A097F493249494932324848483232B8
:1054F0004A4848303A4141217A3A42402078009D5A
:10550000A0A07D39444444393D4040403D3C24FF07
:105510002424487E4943662B2FFC2F2BFF0929F6B4
:1055200020C0887E090320545479410000447D4105
:105530003048484A32384040227A007A0A0A727D5E
:105540000D19317D2629292F282629292926304879
:105550004D4020380808080808080808382F10C8E7
:10556000ACBA2F102834FA00007B000008142A146B
:105570002222142A14089500220095AA005500AA98
:10558000AA55AA55AA000000FF00101010FF001431
:105590001414FF001010FF00FF1010F010F014148E
:1055A00014FC001414F700FF0000FF00FF1414F4B3
:1055B00004FC141417101F10101F101F1414141FB4
:1055C00000101010F0000000001F101010101F102D
:1055D000101010F010000000FF101010101010102C
:1055E0001010FF10000000FF140000FF00FF00007B
:1055F0001F10170000FC04F414141710171414F4EF
:1056000004F40000FF00F714141414141414F70029
:10561000F7141414171410101F101F141414F4147A
:105620001010F010F000001F101F0000001F1400E9
:105630000000FC140000F010F01010FF10FF141414
:1056400014FF141010101F00000000F010FFFFFFE7
:10565000FFFFF0F0F0F0F0FFFFFF0000000000FFA0
:10566000FF0F0F0F0F0F38444438447C2A2A3E1492
:105670007E02020606027E027E02635549416338BD
:1056800044443C04407E201E2006027E020299A56E
:10569000E7A5991C2A492A1C4C7201724C304A4DCC
:1056A0004D303048784830BC625A463D3E49494901
:1056B000007E0101017E2A2A2A2A2A44445F4444AA
:1056C00040514A444040444A51400000FF0103E039
:1056D00080FF000008086B6B083612362436060F70
:1056E000090F06000018180000001010003040FFDD
:1056F0000101001F01011E00191D1712003C3C3C56
:105700003C000000000000000000240027002A00E8
:105710002D00300000000000250028002B002E0086
:105720003100040404040403040502020202040319
:10573000020202020606060606060404020202042B
:10574000040408020110408040102040804080087E
:1057500002040180402010020110801020404020EF
:105760000000000200090F0000030401000C00000B
:105770000000000000000000000000000000000821
:105780000B000202020100090400000102020000F5
:10579000052400100105240101010424020605244A
:1057A0000600010705810310004009040100020AF8
:1057B00000000007050202400000070583024000C8
:1057C000000403090441726475696E6F204C4C43F8
:1057D0000041726475626F790012010002000000DE
:1057E000404123368000010102030112010002EF53
:1057F000020140412336800001010203010094337D
:1058000011241FBECFEFDAE0DEBFCDBF25E0A8E256
:10581000B1E001C01D92AF39B207E1F711E0A0E09D
:10582000B1E0EAE1FBE602C005900D92A832B107B3
:10583000D9F71BE2C0E0DCE204C02197FE010E9420
:105840008035CF3FD107C9F70E94A9330C948B351F
:105850000C94000080919F018EBDE0EAF1E08191FF
:105860000DB407FEFDCF8EBD85E0EF39F807B9F71F
:105870000DB407FEFDCF0895FC0180919E018111BA
:1058800003C08FEF9FEF08959FB7F89482E0809355
:10589000E9002091F20030E01216130614F421E022
:1058A00030E02115310559F0289884E680939D0158
:1058B0008091F10080838091F200882319F09FBFCE
:1058C000C90108958BE68093E800F9CF8091950196
:1058D00081110DC082E08093910184E08093920158
:1058E000109294011092930181E08093950181E9D7
:1058F00091E00895CF93DF931F92CDB7DEB7698310
:10590000DC01ED91FC910280F381E02D41E050E05B
:10591000BE016F5F7F4F09950F90DF91CF91089582
:1059200083E08093E9008091F200882319F08AE3F4
:105930008093E8000895CF93DF931F92CDB7DEB731
:10594000FC018485958597FD05C02FEF3FEF3587D6
:1059500024870BC0CE0101960E943C2C019719F4BC
:10596000898190E002C08FEF9FEF0F90DF91CF9180
:1059700008950F931F93CF93DF931F92CDB7DEB798
:105980008C01FC018485958597FF0EC0CE010196A0
:105990000E943C2C019719F4298130E002C02FEFBE
:1059A0003FEFF80135872487F801848595850F90AE
:1059B000DF91CF911F910F910895FC01848595850A
:1059C00097FD0BC09FB7F89482E08093E900809127
:1059D000F2009FBF90E0019608959FB7F89482E08F
:1059E0008093E9008091F2009FBF90E0089540917C
:1059F0003B0150913C012091390130913A0142170D
:105A00005307B4F49091E8009570E1F39091E800A9
:105A100092FD19C08093F10080913B0190913C016F
:105A200001968F739927892B19F48EEF8093E800E4
:105A300080913B0190913C01019690933C018093B1
:105A40003B0181E0089580E00895CF92DF92EF92CC
:105A5000FF920F931F93CF93DF931F92CDB7DEB7C3
:105A6000182F062FE42E862F880F8E5F99830E94B1
:105A7000F72C83E00E94F72CF12EC12E9981D92EAC
:105A80008C2D8F19801798F4F601E7FE02C08491DF
:105A900001C080810E94F72C182F80E00E94F72C13
:105AA0008123FFEFCF1ADF0A8111EACF01C081E025
:105AB0000F90DF91CF911F910F91FF90EF90DF90AA
:105AC000CF900895DF92EF92FF920F931F93CF93A1
:105AD000DF93D82E8A017B01E40EF51EEB01CE1573
