:100000000C9411260C9439260C9439260C9439261C
:100010000C9439260C9439260C9439260C943926E4
:100020000C9439260C9439260C948F2D0C9473293A
:100030000C9439260C9439260C9439260C943926C4
:100040000C9439260C9439260C9439260C943926B4
:100050000C9439260C9439260C9439260C94EA2BEE
:100060000C9439260C9439260C9439260C94392694
:100070000C9439260C9439260C9439260C94392684
:100080000C9439260C9439260C9439260C94392674
:100090000C9439260C9439260C9439260C94392664
:1000A0000C9439260C9439260C94392630273327A2
:1000B000222726272A2754275427542737273B2728
:1000C0003F274527492754274F27D5F08D14A1C82E
:1000D00081CFD9F1AF2000140213021202150207DA
:1000E0000208020A020A010B020B010902090104BB
:1000F000010C01060100000010182028303840488B
:1001000050586068707880889098A0A8B0B8C0C82F
:10011000D0D8E0E8E80000101820283038404850D7
:10012000586068707880889098A0A8B0B8C0C8D08F
:10013000D8E0E8E80000101820283038404850582F
:100140006068707880889098A0A8B0B8C0C8D0D8EF
:10015000E068E878808890000010182028300002BD
:10016000A0E870000F08B01820C8D00003E850586D
:100170000007303800010830384070303840D89ED1
:10018000A684B6747C80D8DFE7EF0703BFC6CCDC5B
:100190002F07834717878F06000E474F57E7EFD784
:1001A0000780578FBFC7A707810F07010FDF07879A
:1001B00007C31F078307030F07095F676F770707E9
:1001C000571706132F078F0F17575FAE6E77474FDE
:1001D000070F0FA7AEB62F37079F4F575E06070EC4
:1001E0007F071F5717A7AEB656C7474F57E7EF060B
:1001F0000F9E17D797078F3F474FE65F37079F4FF1
:10020000878F07070F7F874F979F3F078757C7CF76
:1002100007CFE7EF479757078F474F1F878F979F66
:1002200047878F07C76FD7DFE7C7CFD7DF07870FAE
:10023000171F07AF07CF0F078F0F676F27079F574E
:100240005F4F575F07077707BF8F07DFA7AF070F1E
:100250000FCF57DFB7BF078F4F575F9F2F079F0FF6
:100260004F979FA7E73F474FCFD7DF071F07BF8FA6
:10027000979F37070F0F5707AFDFE7EF078F575FDE
:100280001F07DF37079F0F575FAF6F4F7F5F8F9756
:100290009F0787B707EFCF07CF0FEF4F575F373F66
:1002A000474F078F979FA77F878F97CFD7DF07C7C6
:1002B000DFCFD7DF8F07870F1707DFC707CF0FE71E
:1002C000EF5F078F57174F272F37070F4F9F5FAFEE
:1002D0006F773F478F07BFA707DFBFC78F979F077E
:1002E000AF078F07CF1F27078707070F572F575FC6
:1002F000474F0783070B079707C307C7D7175F3712
:1003000007894F575F575F7707C10F07E32707E15B
:10031000272FCF2707C0275F4F5707F187076107B0
:100320000107F7BFC7B75FDF07230783574F579F03
:10033000AF0763574F9F979FA707F14F07039F078B
:10034000FFEF07C307E307F3B767078367475F5705
:100350004F0763B74FAF8FA79FA7076707039F0795
:10036000FFE707C307E30F675F07835F3F574F57F9
:10037000076307875707F797AFA7AF072357A74F1D
:10038000DF07C307E307E1072707830F07EF576F6F
:10039000576FB74F5707E79FB79F07A107B3A7AF9F
:1003A00057EF07C107E15F570783078107F307C3CB
:1003B0006F6707B107936F675FB7BFB707A1079173
:1003C0008FB7AF07C10F07E15F57DF078107F35F03
:1003D00067579FA707C3574FA7AF9FE7C747978F99
:1003E000E7EFDF079107C107831FE72F3707E15FBB
:1003F0000781EF1707F3878F57AF4F07C3674FCFBB
:10040000D79F07919F4FAF07E3DF07C1B757EF9F14
:10041000078157BF4F07E107A1B707835FAF07C346
:10042000AFB757079157AF07E75707C10FAF07930C
:10043000AF07815FAFB75F07E3072107830F07C7E8
:1004400007C30FC76707235F67574F7F07C1B7BF52
:100450005707030787CFD7B7BFB707E10661575FD5
:1004600007830F07C307F1676F07F757474F07C1A8
:10047000AF07D16F07FF07F3EFCF07E10F07F80FC3
:1004800007FD273F474F474F5707FE6F77575F6777
:100490006F77EF4F8F5F04B4060007881F07FF6F69
:1004A000079707870786078207C807FC777F878F2C
:1004B000979F07FD07FB07BFD7DFE7EF07FF0F1782
:1004C00007DF079F3F474F575F676F57078F6F974C
:1004D0009FA7AFB7BFA74FB7DFE7EF07FF0F17071C
:1004E000CF0F07DF474F575F676F575F07EF979F44
:1004F000A7AFB78707C7B7DFE7EF07FF0FD74F07EC
:10050000CF373F474F57379707DF7F878F97777FE3
:1005100087B7BFC7CF67078FC707FF0F171F27070B
:10052000CF57174F575F676F8F9707DF979FA7AF1B
:10053000B78FDF9FD7DFE7EF07FFD70787EF2F37AB
:100540003F474F07EF07C70F27878F979FA7474F53
:1005500007CFCFD7DFE7EF8F974707FF0F171F278B
:10056000D7DF8F474F575F67BF0787D78F97000049
:10057000A707F407CE5F07CFEF07FF007F00370024
:10058000230030007818C0C860585048405898A0E0
:10059000A09890888098D8E0E0D8D0C8C0D8E8E08B
:1005A00007FF0F1306BA0610060008101907800788
:1005B00082878F97008368707E867F0FDF077F02B8
:1005C00004C4CED7DF5F07FF0F0717E7EF07C09719
:1005D00007F85B676F70007C0378037EA800BE009D
:1005E000BFD7003F08009F00DE300037002F015FBB
:1005F000007F001F000F006FA820001708605850F0
:100600000027B88078000B00FF003FC0A860D8E04A
:10061000D848007F001F002F0067183038A8A0506E
:10062000B0500037788000FFA8A0A8003F50C80055
:100630000F00DF60007E001F6068505800DE09C0B8
:10064000A0A8B098A0001C01BE00FC007F003F00E5
:100650002F001EE00008005C70586068001D001745
:10066000D80058007C003E0878001FD8E800300011
:1006700078003C001C68002E07BFE0A00070003826
:1006800060002D57000CE80010D8580018A1000A8F
:10069000E8D8E0003008009E005BE0E8D8E050B801
:1006A00000BE0004E8D0D8E0A0A0005CC8D0D8E02C
:1006B000E8E800140054B0B8C0C8D000200038E00A
:1006C000B0B8C0C8D04840E8B0B8C0C8D08880E84A
:1006D000E0E8B8C0C8C8C0E0E8E0E80000100020CA
:1006E000003838404850586048407880889098A03A
:1006F0008880B8C0C8D0D8E0C8C0E0E8E0E8000012
:1007000010002000383840485058604840788088B1
:100710009098A08880B8C0C8D0D8E0C8C0E0E8E011
:10072000E800001000200038384048505860480069
:100730003070889098A0A89040B0C8D0D8E0E8D099
:10074000800010E8A8B0B8C00020D0000860687031
:10075000788048003048A8B0B8C0C8904088E8B851
:10076000C0C8D0D00038D8E0E8B0B8C0002048E019
:10077000E86870788000300018A8B0B8C0C8D048C9
:1007800040E8B0B8C0C8D00010003CB0B8C0C8D075
:10079000400008001E70788088904048000F38C0E4
:1007A000C8D0D888000C88D0B8C0C8D0D840000DB8
:1007B0000007B0B8C0C8D00008A0000EC0CED4D882
:1007C000E0485040B4BF0780D0D89098000CBA479A
:1007D0004FD0D8D8E040E2878F6870000808889A28
:1007E000CF07C0B8C04850D0E207804F8890900033
:1007F0000CA8BA4F97D0D8D840E85ACF9770780055
:10080000088810A207C0E7C0C848001860724F07E8
:100810008090980010000CB8CAA7AFE0E848E04804
:10082000B2E7EFC8D00008E010B207C00FD0D84838
:10083000001860724F5788909040A0B28F97C8D030
:10084000D00010000CAADFE7C0C8000850486A07B3
:10085000C00F889090500018BA4F57D0D8D8984001
:10086000EA8F97C8D00010E0889AD7DFB0B840C0B0
:100870000008E207C017889090001850BA5757D068
:10088000D8D84090A29797B8C078C8000CEA07A0C3
:10089000EFC000080848001C687667804850000ECA
:1008A000080002C40420D8D8E0000F08000BE0E8DC
:1008B000000450A060686078E888900003001F186A
:1008C0000001D0D8E02050003F0021D8E0E890A0FF
:1008D000A0007F0049D0D8E00002E8D050004AC014
:1008E000C8D0D8E00001007B002E0020D8E0E8E06E
:1008F000E8003F006650C8D0D8E00010006F002626
:10090000A8E8E0E8E00030005F500020D8E0E8E030
:100910000074000F0003E0006070006AA00002D0C5
:10092000D8004008E8D8E0E8C03840D8E0E8E0E87F
:10093000E000C0E0E8D8E0E8D8B8C0D0D8E0E8707F
:100940000040089098A0A8B0B80060D0D8E0E8783F
:1009500007C007D007DC07FE07FF0F171F07DF0FD1
:100960003F474F575F6707EF57878F979FA7AF475F
:100970004FC7CFD7DFE7EF2F07FF0F171F272F37FF
:100980005F474F575F676F779FBFB7979FA7AFB717
:10099000BFC7CFD7171F07E707EF07FF0F079F074F
:1009A000CF573F474F575F6707077F878F979FA7AF
:1009B00007DFA7077FD7DFE7EF07FF57073F572E70
:1009C000373F474F07BF979E767E878F97CFA6DE2C
:1009D000B6BEC6CFD7DEE6EE06FF0E161F272E34B4
:1009E0003C464C565F676C767C848E949FA6AEB472
:1009F000BCC6CED4DFE6067F0E04FF262E36274681
:100A00004E565E666E7667868F969EA6AE063FAFA2
:100A1000CF1F27E637067F4E07FF676F777F878FE9
:100A20009647A7079FBFC707BF071FEF9F4F575F97
:100A3000676F777FDF8F07DF078FB727C7CF07FF86
:100A4000E707CF0F079F7F177F57474F575FBFB706
:100A50007797878F979FA7AFB7D7C707EF07C7EFDE
:100A600007CF0F1707FF2F3707E74F575F674F77FE
:100A70007F9F8F979FA78FB7BF0707D7DFA7EFD7B6
:100A800007CF07C757E707EF2F3707FF5F47A7577E
:100A90005F776F478F87E7A79FA7BFA7DFC70607C7
:100AA000EF07CF6F07C707EF1F3F07470F474F6F8E
:100AB00007FF6FEF078707A79FA7AF5707E7CF1776
:100AC0005F07C307E307C7B717676F3F575F57074E
:100AD000FFA777B7878FA7D747E7B717C727E7CF0E
:100AE0008747E7574707C30F07C7D7971FA7974FF2
:100AF00007836707FFE76FCFD747072307E357EF62
:100B0000BF67CF070347EF9F9F67AF0707076707D9
:100B1000C7E707FF1FC707A767E74F574F674FDFB5
:100B20007F6707C39F978F07A30783B7BF57CFE799
:100B30004707938707E30F07C12707FF07B307D1CD
:100B4000EF6707C38F6F07FBAFB75F67A707C00FDC
:100B500067EF07E12F07D00F575F5F67D77707B0C1
:100B60000F0780AFAFB7CFD707305F4F07C0BFEFDA
:100B7000DFE79F07A0079057C7DF6FEF9F4FE7970B
:100B800007F107F0BFEF07700720B70780575FE74F
:100B9000EF073007A0079007C0B7D7DFCF5F07B0D8
:100BA000574F07F807F0DF170778C7AFA707FC67AD
:100BB0005F07BC0F073C079C07C0676F0F07DF0785
:100BC000CF078F1FAF07FF0F575F079F070F6707FD
:100BD000C75F67077F07BF071F0F17CFB707F70F5D
:100BE00007E707870F07CFBF07FF07EF0F3F078F05
:100BF0000F1707C75F67077F07BF071F0F070FE7BD
:100C0000BFC75F57079F474F07C307FF0FA707DF00
:100C100007870F57E7575F676F078F0F5F07C0079B
:100C2000FC07F81F07FE07A807000780E7DFE7EFCC
:100C300077079057B7E707E10F07C307E3072307D5
:100C40000107C23F07EF6707C7EF06470680373F38
:100C500007FF57078707CF068E64078F3767572729
:100C600007DF048CBA57079FBF777F57050D010038
:100C70004F5707FF07CFDF87E90281079EB75F075E
:100C80008F0F07DF215C57079FB7575F27018BAC9A
:100C9000474F07FF67AF77490481079EA757B707FC
:100CA0008F07CF019B64078E079FBF5F6707DF0435
:100CB0008902849F9707FFBFC75F048D0200078FDB
:100CC00007CF67172FE705CD5C574FAF5F776F04EE
:100CD0008C050997AF07FFB7CFC70488050BEF074F
:100CE000CF5F1707872F04CC0502078F67BF775F99
:100CF00087068ECC4FAF07FF07C7B7DF8C0600A76C
:100D0000079F5F0783078707CF068F06040789774A
:100D100007EF776F67060F5F0718CF07C3CF07C7C7
:100D2000C7DFB6078C079F3F676F07E707670705B1
:100D30006707CFCFA7CFE71F072107C48F5707E16A
:100D40000F7707B25F57B787475757077A0791075B
:100D5000C007E3E7A7EF07F80739675FA73707F092
:100D60000F17063CB7AF07F16F575F670638079359
:100D7000775707FCAFB707F85E0791CF07F25F0719
:100D8000F00F0778BE0781CF6F979FA7067C0618E4
:100D900027D74707FC07FE073E060F072007705FAF
:100DA00067071F0703078107F09F07BF073F1FB7AC
:100DB00007D8E707FF0F171FB72F373F474F5707D2
:100DC0005F071F7F878F979F070F079F07DFD7DF7B
:100DD000E7078F473F07FF0F17774777373F474FA3
:100DE00007AF87C7777F878F97BFC707DFBFC7CF9B
:100DF000D7DF079F07875707FF0F171F272F5F575B
:100E00006F4F575F676F777FAFA7BF9FA700001037
:100E1000182028E000780068586068707800F0506A
:100E20000074A8B0B8C0C848006C48E8C0C8D0007A
:100E30008000B000ACA0C8D0D848E8012800DC0091
:100E400068C8D0D9E0E801245048D8E2E8E0E801D9
:100E50001000D4007AC0CAD0D8E05148005A687255
:100E60007880889001CA006AB80080D0D8E0E8E0B5
:100E7000E8A8B000C0C8D0D8E0E8A0A8B0B8D0C8F2
:100E8000D0D8E0E8D8E00020A8B0B8C0C8D0D8409A
:100E9000E8586068707800308898A0A8B0B8C000A2
:100EA00060D0E0E870788088400020A8B0B8C0C862
:100EB000D03840E8A8B0B8C0C8780030E8A0A8B0E2
:100EC000B8C0380040E0E86870788000200060A872
:100ED000B0B8C0C8D038D8E8A8B0B8C0C80030880A
:100EE000E8B0B8C0C8C8D048E8E0E87078800070C2
:100EF00000200008B8C0C8D000100060580040882A
:100F00009098008048B0B80024D8E0E888007400C9
:100F1000B0017000F818E0E8E83800680060605838
:100F20000078D8E038A04800306010E0E8E08800A1
:100F30002048A858D0D8C838D888E898E0E8006099
:100F40008010D0200070B8C048C858003040788861
:100F5000900020A07848B890D0D84078E888006009
:100F6000D8E8B888C03038D80070C8D00030E080E9
:100F7000884098A8B040002000E01890E8A8389079
:100F800000A000600810E8D8E0E08840A800706089
:100F9000D0D800B030900020A858D0D84878D84099
:100FA000E80030B0B890C00060901048D0D8D800A9
:100FB0007048D85890A0A838808890C8A0E0002039
:100FC000801090D8A0A8B80060C810D80078007031
:100FD00018985020284038003860E06068003400DD
:100FE0007C4850B0E838C800369890A8003CB8B8A3
:100FF00018001A001E801050D848003E5048C80003
:101000000EA0D898486890000CA8001CB010001DD5
:10101000088890001E003C5068507038E04840C07E
:10102000C800700078088098A0D8E0788088784858
:1010300050E0E89098A0A8B0B8C0C8D0D80040E070
:10104000E820283038400020586068707880880098
:1010500010A0A8B0B8C0C8D0002CE8A8B0B8C0C8CC
:101060000009000AA8B0B8C0C8D0C80004A8B0B829
:10107000C0C8D0000500BDB0D8E0D0D80001000F36
:1010800003B501A501B40124E8B00009003405DE70
:1010900005570543B90003080007006505D1055F42
:1010A000C5000B000E000F001F011605C7026F00E0
:1010B0003F580008003C001E012C069CE9046E40CD
:1010C0006860680028071C01DE005DB0C8C0C85811
:1010D000574940003C00081820A8A7999048D858C4
:1010E00060E87701BDD8001CA8A8B00138B502DFC0
:1010F000005C003C70481859069C017D005D58005A
:1011000010A878022865B8A0A848B8C0B203980013
:101110007F003C08A01800381A039C5850305868CB
:1011200048624500FF70A0A088B8AA059900FEC0DB
:10113000003C0010E800380218059A00FD6040608D
:10114000007060013006BB00FA98A0405860012290
:10115000037D8C90989000F040A8C800E00971E0F1
:101160000070080162007950C040A000786002322F
:1011700002F5A89098D0A858AA02F6D0D8E0C800E6
:10118000700800280776303800F058586050A600E4
:10119000F18990A0A0A8003206F5880130E8E000AF
:1011A00070085806FA283138C84850A09E687178EF
:1011B000D08890E0DEA8B1B8C8C80078002006F753
:1011C00000700910502058504E404950906098903F
:1011D00006F60071C90060E8B800780020077B00BF
:1011E000F400680170981068605F00F050499058F2
:1011F0000038E0077600F90064A9B8B80078D8078D
:101200007B00F400B00070002018681806FB600135
:101210003000725870C07056B0A84198B00078B8CD
:101220009E00F400B099B8480070002806F700F05E
:101230000074490020B868605E5000B49948007896
:10124000B86806FB00F400B0BAA858007000280681
:10125000F700F000B802740020D07068668900F8CA
:101260000164500078C8C0BEE15049984000700049
:101270002806F77901740172C0A8B0062B01FA881C
:1012800012016407CF07870F01D2060B078F4605AF
:10129000196F676F01D406075F0685048BCFC7CF30
:1012A00001945EB706870499DF272F0190060F0788
:1012B0008F06860109878F2F00D1070777170088CF
:1012C0000783EF05CA0201CF6F77009807030787EE
:1012D00003D260C7CFD7B857BF03D80002071F0794
:1012E00027060701880783078B0290010507FF6E19
:1012F000060305890781078D0080060607FBE67651
:1013000001010785058C72B2D7C6CC993F0284745F
:101310007C07FF0403A401049D0400D4DC5FEC00FF
:10132000013940485028A768707880889098E7A8CD
:10133000B0B8C0C8D0D807FFC8D0D8E0E8000000D7
:1013400092054B3038404850580124C2788088902C
:1013500098A0012B1840C8D0D8E0E84118000390AD
:101360008820A830012E000608A0000F7800019008
:10137000009C7890000D001C50D8E8005800080828
:1013800048003CE80007E05C545C003850000C006A
:1013900004E802300218BC6068D850D04A021052EB
:1013A00068B07898D090424AE80078C0E820D88A9F
:1013B000DA003048000868700250E2E80038A0689F
:1013C000B8C082021098E0A8202B006002200A001A
:1013D0007030700018C858A26A7078700014D8E095
:1013E000EA02E0C0C8D8A0D8E002C0525060D800DD
:1013F0000C00420060A2621870E868002008525A8F
:1014000000E070A000040858A2AA00700062E85032
:101410000024B002600A5818E8000C002048125A54
:10142000600064C8000450989AAA0070006890C8D0
:10143000002528024002600810C0400020805AA207
:1014400001747838D00024D092B2A2A8A8000498E1
:101450000034E2EA026008180002002200384A5212
:101460005A00F070B8003000240278B2BA02700856
:10147000C05860026C02604A02E00074D8B8C02014
:1014800002686202F050B800300020805A027009F1
:10149000120010E8500271026C5A60BA500060A845
:1014A00092026AAAB002F0E85058006206788448B6
:1014B0000270003F007F082018006850006000F2B2
:1014C00001F90901FD03FC01F4000C087800E03982
:1014D00001E263A3009258D8D800F001EAAB03F20E
:1014E00058B4C8285001E801F45302A90010D0886C
:1014F000B0B901F603F802D05A68E001F0AB03F28C
:101500005F2BAA008001E00F6707E47F37DA5E6691
:101510006F6F777F8F8F9801C00B131B232B07C131
:10152000E84B535B636B737F01000380A713B32306
:10153000C7CF4B434F575F6707C00F918B979FA74C
:10154000AB474FD15BD76BE37B878B0100A3ABB37A
:10155000BBC3CBDB40E1EB03C00B1103E00B00800E
:10156000414B513B61495340618B7179818991B8FD
:10157000A1A9B1B9C1C901F0004001E009111921C7
:101580002931008001C05B1169217B8348414B53A5
:101590005BB1BBC3E0818B939BA303D003E0E0D39B
:1015A000DBE3EB0390534F0100038007C01B1307DD
:1015B000B007F807F069676F777F3707FC5FB1AB5B
:1015C000B7BFC77B474F0100038007C01B131BEF4A
:1015D000A3513B434B535B6303E898818B9399A3DF
:1015E00001F803FCE8D1DBE103E001C059530080BE
:1015F0002943494159A199407981899199A1D900FB
:1016000040B1C9D1D901D001FC09D801C00B01E01A
:101610002159535B0080535B63237363A348499B49
:10162000A363E3DB03FE9093E3A3AB03D007FC0FBC
:10163000E0E7EB07800B1707F85F0000474F572FD5
:101640006707C05F508B979F7707909B07FCD0DBA5
:1016500073EB038093EB4FE82BBBC343D3DB8B00CF
:10166000007103C00B9103D0D9E358414B5159434A
:1016700001FC01FE00809903E0B1B9195951004005
:10168000E9495101C06901F0A9A83199414901E82E
:1016900001FC01FE00800B9BA1215B534B484BDBFF
:1016A000E36303C00B9390912B33AB03D0E3EBD8F0
:1016B000DB77EB038003B007F807FC01000F575FEF
:1016C000276F2F4F404F575F676FA78F808F979F70
:1016D000A7AFE7CFC4CFD7DFE7EF078007F8040055
:1016E0000E171F272E373F404C565F666F767E8061
:1016F00088969EA6AEB6BCC0C8D6DEE6EC06000C48
:1017000010182006203E444C545860687078808839
:101710009098A0A8B088C0C8D0D8E0E80060D018E1
:1017200020283038400030506068707880884090C1
:101730000020B0B8C0C828303840A8B0B8C00040B9
:1017400078D8E098A0A8B0400060003000188088E9
:101750009098A000F00038C8D0D8E0E8A048007801
:10176000C0C8D0D8E0E800F8A0E8B8C0C8D0D88099
:10177000E0E0E8A8B0B8C0C000E00080B0B8C0C8E1
:10178000D000700800C0707880889048500060B821
:10179000C0C8D0D80020A010B8C0C8D0D840E00041
:1017A00030E8A8B0B8C03000F00038B8C0C8D000E9
:1017B000100800F80068B8C0C8D0505800DC0078A5
:1017C000C8D0D8E0A0A84940C8D0D8E0E0E889E077
:1017D000E0E8B00010081003BC01F8E84850505889
:1017E0002007DC03FC789898A00030001B07FE5F00
:1017F000E040E8005000385807FFB728980090A84C
:101800000072003F5FBF01FCE8013000700065031B
:101810007FC707FE07F800406100F0003302FF0FAA
:101820006F3F0280D1580071003F67C79757013062
:101830000070C00037BFC7B707C05A615800B50174
:101840007F07FF0F07FCBAC2C8C10077555F670268
:101850003102300A00700072B0BFC702346A6252AF
:10186000E800F3017F07FF02606CD6CABA01F001FD
:10187000F559023066CC04312C02706803FBD82E77
:10188000EC043C848C5AC000007A7604340CDCAA48
:1018900000F0580230CE14AC242A4AA00020067072
:1018A0001C043C7C8402F8B858566C4CC4CC0278BA
:1018B000A0A006300460043404383CE2000000209C
:1018C00006701C043C949CC26050AEC444D4DC023C
:1018D00078A89806600430043D1C265A00000020B9
:1018E00066043404387C82BA60A8B64C44BCC20298
:1018F00078A800600E9C940630AA02F050505EEC6E
:10190000E44E027002F8A0786A0632023C0210022D
:1019100078620000E0EB023A021D0218021C017C12
:1019200070310338020C031F1A21011ED041019EA1
:1019300081010F010609018F00031801AE01870123
:101940008301071930000100D300C7008100C318CC
:1019500000C108004100E93000C0085018004000F4
:101960007400E15000E06870006008007000F05002
:101970005860487040007800F818602870384000BF
:101980007E08007C2010302040003F086018003E98
:1019900008381848505860001F7880189028A038E0
:1019A000B048C058D068E078003F9010A020B03018
:1019B000C040D050005F68001F80109020A0004FF2
:1019C000B848C858D868006F48003F9810A82080D1
:1019D000489040D850E878C0005FD888001FA00029
:1019E0002F004FE01060E050003F409050006F68C3
:1019F00038A0C888D89840A878E0005FD010E08868
:101A0000004FC8001F50286038D848003F489870E1
:101A1000A880006F984890E0B868C840D888D00087
:101A20005F004FB8109020D8001F5048003F60E082
:101A3000702048002FA810A8006FC0709848005F61
:101A400060004F5010C0E89830A8409050003F0010
:101A50001FE8002F0898E8A85048384048D858E8B0
:101A60009088788088000B004F006FE8E0003F000E
:101A70000F0027002B002F0850001F681000474858
:101A80005058A0A8B0B8C0005F08004F003F081031
:101A9000182050006F6848505860689840A8889097
:101AA00098A0007FE0E8005FD8E0E8003F503840B1
:101AB0004828303888487880886870C080D0B8C09E
:101AC000C8A8B0007FC810005F00DF184048505819
:101AD00040009F48608890003F08001F5010B0D819
:101AE000E0E8000F4850A060007F08005F90E00031
:101AF0004FB0B800FF60003FE8009F001F3010B0FB
:101B000000BF586150702830007F08529500DFD91F
:101B1000C981D8E0005F03CF004F00FF70009F0035
:101B20000F08002702B3B0002F0037400003000168
:101B300000040054000600053820E8E0E80015E83D
:101B4000889098E0E8E0D8D8E0E8E0E8E0E8000233
:101B5000E0E8E0E8B8C0C8D048E0E868707880887D
:101B6000000620A8B0B8C0C8D0000CD87068707843
:101B7000800008001CC8A888C0C80010001808A869
:101B8000B0B8C8D0003048505860C0D0002048508D
:101B900058606870D00060509860687030C840909D
:101BA000D8E0A8B070C880D0003008002008C0D0AD
:101BB000D028485040006070801870900070909855
:101BC00018C86068D8E048880030A8A8B02088907D
:101BD000D040E8E8006068D0D800A090A04048B0AD
:101BE00000700848D8E8889000304800B020C8D875
:101BF000D800205098A12070C000604898E0E9B05B
:101C000070C84088D800F00070B80030D898E02044
:101C10005048002048E0E0206898904088C000606C
:101C200068B0E0D888D0E040E80030017008D828DB
:101C30009090404841486060D0D080888188A0A0C2
:101C4000B80060C8D0C9D0E8E840400030002001AA
:101C500070083028989850A84168507870D88078DB
:101C60008188B00060B810D820C9D00030E80020CA
:101C700060280170091050200010B0784951589820
:101C800068B078B8899198D8A8D8B8E0C9D100B020
:101C900000340070E01000202901F0007400306072
:101CA000907058818900F448A8D8B8A0C9D1900094
:101CB000600070E810E02129E0D840B050002069B1
:101CC0007100749890B00030C0B9C10068E8E0902D
:101CD000480060017009502820E030E841499068D0
:101CE00060D8708081890074B0A8C8B8C9C9D140D3
:101CF00000600070701000202991985048B8584139
:101D0000C900F4809890B0A000A4017400F8D80035
:101D1000600070E81000E800B800F0489058E890C3
:101D200070A080980030A0D8D8780078D0D8002053
:101D30000070009000F80810384000605801DC0185
:101D4000D800FC7178A0A8B041594149B8C0E8005A
:101D50007003CC01DE03FEABB100F8086003AE5B9C
:101D6000675B03FC09596007BDAD07DFC7BBC30351
:101D70007C7107DE4B07FE67171B02FA027407EF40
:101D8000AD07FF0F17D32351373F474F575F676B9F
:101D9000777F878F979FA7AFB7BFC7CFD7DFE7EF13
:101DA00007FF0F171F272F373F474F575F676F7783
:101DB0007F878F979FA7AFB7BFC7CFD7DFE7EF0763
:101DC000FF0F171F272F373F474F575F676F777FEB
:101DD000878F979FA7AFB7BFC7CFD7DFE7EF07FFC3
:101DE0000F171F272F373B434F53033F6A027F8351
:101DF000133303BF0B524062535F63E34B79988EFA
:101E00009377A3838B015FC8D6DBE7EDCBD3023F8B
:101E100000FF067F0B171D3303BF0A404E535F754B
:101E20007B434A909E939F73AB83BBC0CED3DFE3CB
:101E300003FF0B033F007F3213474F2B5B3B019F98
:101E400006BF636F1D232B035F9A4AABB7BDD383D5
:101E5000034FE0EA037F071E031F030FEB032E006F
:101E60001B020E030D07062B034E038F3370020275
:101E7000535B676903870304C852A30307BFE15399
:101E80004B0000A203065783018E038FAB604A53B9
:101E9000A3058C0386530184B8A1A99343A1AB4148
:101EA000000059D1DB98E903CE9150C8038E068912
:101EB000008C29018F0FB000D001DF3F04D800C88B
:101EC000996B90005001DC039E07AF05F9E1018E8C
:101ED000C868A869039F07FE018C59E8C000D83183
:101EE00001AC01FC01CCB950005060915900F8B12F
:101EF000018EA850B0E1A9A1018C49989800D801A1
:101F00009C01AC01FC61A9D050585101CC49A901F8
:101F10008E004000C8B8B100ECA9D1590080500033
:101F2000D80800F801DC08B958A850584841700199
:101F30008EA00094A0A898A0C049E840E0E8D8E0AE
:101F400000D891008090283000F80850E148D870FF
:101F500078404890019E9000C800DCD098A0E8012D
:101F60009C00C000C200EC6901F80901B8086000DB
:101F7000E001EA01CC01FC0B7B00785800F009037A
:101F8000C603DE6FDB584801F80B07D26703FFC9B1
:101F90004048E35F07D803CA6301FE9801FC27139A
:101FA00003DC039C03D001EC01FD838B93039E6350
:101FB0000378039003F8C901FF03BE035E03DE0646
:101FC000FC8301807801FE7B03AF662F017C01A0BA
:101FD000D98B93DFB3AAB1005003F80BE7EF03FCF2
:101FE0003301F201085F6747777F07F413B007F00A
:101FF0000F3F1F07C007A4000010373F078107905D
:1020000002015800412007800F0703555800117046
:1020100030575F4F52A0606870979F2F92980002D0
:10202000B0B8DFE7777A000790981807800F070CA1
:10203000D250E0E8684F5747020608000E00041827
:10204000A7AF9F2A30B06858E7EFDF6AE87850986A
:1020500007800F7F82B89098E0474FBFC2C8D0D8A2
:10206000000E8F970708020C081018001CE7EF2FCE
:102070004A5058484007800F77A298A0908847D7C9
:10208000DFBA0048D8C8D08F070807181A10000C0C
:1020900028001CEF97576A00385078480780E7A758
:1020A000A2C080D09047C7E7E2D000180008E097B0
:1020B000CF07584248000C60001CEF8F5702389041
:1020C000A858480780DFA74AD80018A8984FCFEF34
:1020D0009200084850E097071007588A5098A000CF
:1020E0001CEF570750DAE0A840480780A74F0218B6
:1020F00008000820A05737EF4A504060E097770764
:10210000589280A0A8001CE7C74FDAC8E80018481A
:1021100007800710A73A00085058A0574FEF824099
:102120009098E0978FBF025888D8E0001CE7DF073F
:102130001852D818E84807800F4F9A00080870987E
:102140004F57970228A850B8E0979FDFE2E890E049
:10215000001CDFE707180AD8E0404807800F4F024D
:1021600008801090984F57070C4A101820E0979F4E
:10217000274A5038000E18DFE707069A10A82050AB
:1021800007800F4F52806068000F4F5707030246C9
:10219000B02028000707C0B707816A70B880889F01
:1021A000575FD1D8E0E848DFE79B0080C800100007
:1021B000403803F00BE900907078805801F809105E
:1021C00080B9C0C8D000FC08007C70E1E870C00095
:1021D0007E0848A0780082C098003F08400448D498
:1021E00024E4EC001F08020F0204DBE21BC33840AA
:1021F0000107E1B0B9C0C93038C000C1B000C0C8E3
:1022000010806800430060B81018D0B0D8002108D2
:10221000002008100030E800075848305840680097
:102220000348A09078A088904088E0D0B8E0C8D05B
:1022300080C8002100200030181018D89050484065
:102240005850580003D8989088A098A0400007E004
:10225000D8D0E8E0E888900021003000201820283D
:10226000E000010022585068707800035088A0A850
:10227000B0B8C088E888E0E800300810D8E028301E
:1022800038404850D0D8687078808890A098A8B01E
:10229000B8C0C8D0E0002000300810180038305016
:1022A000502050583868489080609070A08088D046
:1022B000C0A0D0B0B8C0C8D80030E800382010188E
:1022C00020484838584850586088887898889098AE
:1022D000A0C8C80070E0D00030E80038480020589E
:1022E00040487000780898A068287838007C00FE84
:1022F000E8003C083800F803FC5707FFC8C8D0487E
:1023000001F06658ADC8002270418189B1B9E8007A
:1023100004E103C207C00F17BF000158B00602CF87
:10232000D70780EF30580008C85CDEE6061E800044
:1023300009C00004D80018003C0078000578B800F7
:10234000020030485000F05828002948003400604E
:102350005059B0800025007000625800E009001755
:10236000E0004500A500C000CA01802B003F001F0F
:10237000005F010B012701880302E701FF0811003C
:102380007F098C072F96575B676B7379856C979FD6
:10239000A7AFB7BFC7CFD7DFE7EF07FF0F171F27DD
:1023A0002F373F474F575F676F777F878F979FA77D
:1023B000AFB7BFC7CFD7DFE7EF07FF0F171F272F35
:1023C000373F474F575F676F777F878F979FA7AFDD
:1023D000B7BFC7CFD7DFE7EF07FF0F171F272F07BD
:1023E000DF04D9575F676F777F4F44979FA7AFB7D9
:1023F000BF06DD0DDFE7EF07FF0F1706CD75373F8F
:10240000474F575F969D777F878F979FD6DDB7BFE2
:10241000C7CFD7DF06DD0D07FF0F171F277705CDC5
:102420005C4F575F676F8E95988F979FA707DFD692
:10243000D9E4D7DFE7EF06DD0E1104D907FF0F1748
:102440001F563C646F474F578E06DB098E868F9769
:102450009F3E46485606DDD7DFE706D9949CA73E47
:1024600007FF0F07FD06CBEA6C07EF9C5F672606A8
:10247000E95A067907DF02F9BFC706ED06EB046BE0
:1024800006D9076F057B07FF0F766E046906EF57C5
:10249000C4575FC6056DAC4E9F04FDA7AF06EC04A4
:1024A000ED065D1F057D04FF0F7F06CD64C677AC8A
:1024B0004E579706DD548E1F04FD9EA706DF06DCEF
:1024C0006406ED075D6406FF0FAEB6B89687AC46AE
:1024D0004FEEC600DD06DB06FD05FBA5AF3E454819
:1024E000565E52E5EF05BB05B3019BACB69B05FFFD
:1024F0000F5B5303B76905BF03F35F6707770747B0
:10250000076F07670F077F07A7D74E5606CF6E16D0
:1025100006EF2E07FF019F09011F053F303947CF06
:10252000D633E0474F525E067F867C1C8F2E9E3C42
:1025300046060FD464D777E6EE8E052F041F063FBC
:102540000F171E262F3706076E575F677F07BF8757
:10255000079F0703071747D7DF07DF57078F078353
:1025600007158F973F07CF0F4E07072F978707C78E
:1025700007E71F034F5B838B935307F303E303C307
:10258000898189313907FB05F10DEC8004F9343C70
:1025900007FE077C066C0670A6077EBF063807FF9D
:1025A00007B7078F078A07DC07DF079F070E7F87BC
:1025B00007C307C707EF0F07CF37DF3703E507E389
:1025C00007F70F07E73307FF0B03F301F203F92BBC
:1025D00033395F6500FD4405FC586068AF067F0431
:1025E0007E067C0E14182007FF4E073E67E6640047
:1025F0003C001E5F4F079E07BC777F0016040CBF90
:10260000575F07DE079FA7A8040207FF3F07CE0713
:10261000DF078F071F005F746F4F4707CFC7670043
:102620004F000AC7A74F575F070F721007FF07EF4A
:1026300007C7B7076767D3705F07E757170727070D
:102640008787004FBF5FAF6F064707039500A3075B
:10265000FB07F307F10F073107802F007007FE0F0C
:1026600007FC0F07DE07E497077E07FF0F171F27FA
:1026700007F98F974F575F676FC77F07DF979FA750
:10268000AF078F070704010CEF07FF0F8706030E44
:10269000676F474F575F079F56AFB78F979FA7EF5B
:1026A000969E0707D7DFE7EF070BE6EF4F07FF0F11
:1026B00007CF07030F9707830F5FBF474F573F07AA
:1026C0008B8707078F068907DD0F07FB9707FF003A
:1026D0000000880800F805F9D5DEE76068706050F2
:1026E0005801FC70A8B0A000D8A0A94950E8E8E8BB
:1026F0004078E98901F80004001C007C0841E020D2
:102700000078484000FC0860680038D8007E01FE70
:102710000961009688E8000107FF0B176B0007E0CE
:10272000E90005575F676F00F806026F77A7AFB73C
:10273000BF07DF06030E040107FF0F171F07975F90
:10274000666E4F5707F7979E8F07830F9F071F06E9
:1027500007EE0703078F07DF07F32F35049904C936
:1027600006D1077907F8D70184008C00D800500CF7
:1027700004F06C745860D100CC00540070C0C8B034
:10278000BBB900D6B04800F80800C000C7004C0034
:1027900048A80078687000D0005000704800FC0025
:1027A0007C081000E00060A000F85058003C704821
:1027B0000020007858A8003858C8A0504850384029
:1027C00068007CE898003000709020C0C80040008D
:1027D000205860680078080038C050A8B0A8C038F9
:1027E00040E0E8E800300800602028E0E8B8001881
:1027F000586068E8E88880404850000808C8D02041
:10280000B0000CD01050C0C84838C8D0D890A0A88C
:10281000880006081018B8E8B8D040485058E8704A
:10282000780004885098A068B8C0000108101820EB
:10283000288088904CA2ADB0B8C4CED40680EFAC4E
:10284000B0B8C3CB074007A003000910188091411E
:10285000A3A3A85058C0D0D8A0A801C098C0A8D0A1
:10286000C0C8E0E80040E818200070006000E00800
:10287000581070780048013860788060B8C8C80384
:102880007D500030007800180040081005F7013E28
:10289000C860D80041606807FB01350076007C0005
:1028A0003C00C1D0006107FF03280073007B043E99
:1028B00000C3004000E17F0369007000E9043F703D
:1028C0006860DF5B5000E4043600E3C000E007FF0F
:1028D00005B3D800F0046200F36068CD07FD042062
:1028E0000070A800FB88C801F2D7B560584900F80D
:1028F000E0E905FF06F9D0C02F5000FC69435F00F6
:10290000F00C7F03FB50596137A70050CFD7816986
:10291000717B07DF059807FF0F13E1C94B5706DDF1
:102920004F575F636B019DA7AF979FA7AF039FE3CF
:10293000EB07DEE7EF07FF07DF07BE1B272F474F39
:10294000579F578F03BF878F979FE79F079FC7CFDB
:10295000D7DFE737E74707FF0F171F277F07DF0F8F
:1029600017575F676F3F474F07CF07EFAFB7BF37C7
:10297000979F4F47EF07FF677F877F978F3F47A757
:10298000BFB7BFD7CF7F87E707CF07EF1F171FCF8F
:10299000D7374F675F5707C707FF0F872FB7AF4777
:1029A000CF474FE76F177F872F878F4707D7BF67BF
:1029B000CF0787D7DF07E307D307C32F07C70783EF
:1029C00007FF07F7776F776F97574F47B707D1BF65
:1029D00007C1C7A79F97274F07D34F07C367EFE7E5
:1029E000779F4F9747A707FF57BF07E19FE79707D5
:1029F0008157A707E357EFDF07C10783AF3F57A70B
:102A0000079307C35F5707FF97AF07E107B39FA778
:102A100007815FEF07E30F073107830F17B75F5792
:102A20005F07634F070307A307FFBFB707D36757C6
:102A30005F574F03F707E35310A0AB0721A3514D96
:102A40009D0063000300235D06FFB406C3BE04734C
:102A5000646866067F06775EB60433B8C6BF57075C
:102A60002FDF0763062304070403074307BF770725
:102A7000870F5F666E2F4F078F0F57070FB6370709
:102A8000C7079F07CF0F177F06030707474F07DFCB
:102A9000671777475FEF3F9FA757B7DF0787D707CE
:102AA000EFEF07C707CF1F07810783E7671707A760
:102AB00007D37FB7070307C3BF7707F35F6707E352
:102AC0000F07E107FB5707F907D107D907F13F17B0
:102AD000171F2707DA07DE4F574707FE0F07FD4F7F
:102AE000AF07F7474F07FF0F179FA7878F27474F5E
:102AF0005707DF0F07DE878F979FA74F5707BFCF77
:102B0000D7DFE7EF973F079F07FF0F171F27878F35
:102B1000979F4F575FBFC7CFD7073FEF9FA707BF0D
:102B20000F077F4F571FEF07FF3F474F979FA73F65
:102B3000477F878F979EE77F87BFC7CFD7DE063F48
:102B4000C7077F0F171F262F4E07FF4F575F676E70
:102B500077063E4F979FA7AFB6BFDE8FD7DFE7EF71
:102B6000077F0E073FDF2F373F474F564707FF0FBF
:102B70007F878F969F063D4F57C7CFD7DEE7067BEF
:102B8000979F077F0F171E272EDFE7474F575E6679
:102B90006E07FF0F8F979FA6AEB6474FCFD7DF06C2
:102BA0007707731E97077F0F474F474E66DFE74F44
:102BB0008707678FA6063307FF0FA7DF076307772F
:102BC0000E5E575F077F3F574F56A79FA7477F97D8
:102BD0008F96E7DFE787BFD7CFD6073307FF0FD73B
:102BE00007770763077B2E675F67077F5F574E771F
:102BF000AEA7AF479F0773066BC72607FF0F9F0758
:102C0000775F166E264F57E7479E575EB68F97073A
:102C10007F8FE69FA6AED7DF47077B0673EE06776A
:102C20000E07FF0FA75F56464E56474FE79F968603
:102C30008E96878F077FE7DECED6DECFD747077B1E
:102C4000067306770E1607FF0FA73F564F566E47BF
:102C5000DFE78F0737A69EB68F077F073FE7560748
:102C60006706637EEF4F970723AE0727561607FFC9
:102C7000A737070767070F668657073F4F570703B2
:102C80005677BEA74F979F4796B70627EF97DFE780
:102C90008FDE07074E07FFE72F37DF060F579E4FE0
:102CA000073F7F870703565FEE470637CFD74F9E14
:102CB000EF0607961606232F0701464E5607FF0F0D
:102CC000042F4C0402040304935F676F777F04258D
:102CD000979FA7AFB7BFC7056DDFE7EF07FF0F17D8
:102CE0001F272F373F474F575F676F777F878F9734
:102CF0009FA7AFB7BFC7CFD7DFE7EF07FF0F171FFC
:102D0000272F062307AF575F676F078F06630633CA
:102D10002FAFB7BFC7079F564E7707FF0F171F0785
:102D2000EF97066707BF5F676F777F07270673A771
:102D3000AFB7BFC7CF4F46E7EF07FF0F171F0623F9
:102D40009407EF4F575F6707AF0421007107BFAFCC
:102D5000B7BFC7060300700030075707FF0F175FA4
:102D600000206068001307DF6707A2B4A00078C8DE
:102D70000011000FC7AEB0007000F8180023000764
:102D8000003FAE0001006000F101F900A370D8041B
:102D90001F90000300E37000F30183E1D868000A8C
:102DA000B800F0007000C0C1007C003C0010E0588A
:102DB00060004008007800300020E0B81820006073
:102DC000E04048D868606870488088D0A8A0A8C053
:102DD00088C0C8E8E8E0E800300020E0281800706B
:102DE0003038404800607868487880309098B8B8AB
:102DF00058B868C8D0D8E8C0002008B0182028D833
:102E00000070485000607070788848909840B0B06A
:102E1000B8C888D0D880B000200808B0202830D8A2
:102E200040E85000306810788888989840A850B8DA
:102E3000C8C8D8D880E80020A0B018C028C838403A
:102E4000E0586068003008808820A0A8B0B048C072
:102E500058D0E0E880002090101820B8C0C840008A
:102E600070586000608088909048A0A840C0C8C892
:102E7000007808E8002090B8C8003850007C48006E
:102E800030080070A05848003C00325860680004C8
:102E90009848003E50A8E0B8006E3840003F00332C
:102EA00000780038E0007F50586000FB5860007CDC
:102EB00050A0A8B000F9A8B0B898E8003F007B5037
:102EC00000780038A8007F586000FBB05850003CE4
:102ED00050A860490099A8B04898003F00FF01BB86
:102EE00000B9007808B0007F6810003B58500038E7
:102EF000003CB8001FD026075C0E043E001E000FE9
:102F000008121E07FF373A400003081103815303DC
:102F100083410105C0D801C001EB01FDC930880023
:102F20004000E000F000FF00FC2840E0E8007000F6
:102F3000785800FE2038400038007C08007F087870
:102F40000060E8000C000600210040500020E0E88E
:102F50001000013050A048D8E038D07090E088E0F0
:102F6000E8E0E8B0B80060D0E0E8C8D00020084849
:102F700018606870784080509060A8B0B8B888C871
:102F8000D0D8A8B8C000600810182000E040484819
:102F900050586068708088002098A0180070C0D0D9
:102FA000D848E05800604810E8900030A010189011
:102FB00028D0D8404850586068E8B000109098A0D9
:102FC0000038B8C8D048D8E06040003088909020E1
:102FD00028A88840C8D058D868C0C880E00020A081
:102FE000A8180078006000105858007000304800A1
:102FF000F098A0B0B000E090002800F8002008E8A9
:1030000018E000D00060B0610040D8E038B828C8AF
:1030100001F0E1D8E0608800E000C01920D8E0D0DD
:10302000D8E05000606878B820283038A0A8B800F0
:103030002068007008101800E0B0B0400030580060
:10304000780800F0A8909850A8485058E8D0003868
:1030500098007098A0A8D02848E0E8D8E0E8E06898
:10306000880030A000780810D0B8D848E84000F8B0
:10307000588000700038A0209850A8D048405801CF
:10308000F009080078B89838AB4A53C0C8D8006037
:10309000E804E00370AB1000F8B0583844EC03B01B
:1030A000E068A07880B09403F001380078B0D0D800
:1030B000E8EC533940505E666E767F868F9098A01C
:1030C000A8B0B8C0C8D0000E001F18001E003F30C6
:1030D0002058007008101800F00838A848505860B0
:1030E000404878E8889098A08088B8C8C8D0D8E0D0
:1030F000C0C80070E81E262E373E4706805860681C
:103100007078808890980015384050003E003F1835
:1031100050005000F000600070283138B05850481E
:1031200040687178C898908880A8B1B8D800A0D8B5
:10313000D0C800F009E9484903E001C009232F3550
:1031400098A707800FC7CF272FE4EF47D7DEE6EF1A
:1031500007000607078F070F07030E0601262F67D4
:103160005F577F5644669EA79F97BF9684A4AEE69E
:10317000DFD70707DEE6EC0603060F0F1757373ECB
:103180004477464F57979FA686B7868F97D7DFE637
:10319000EF0787CED6DF07070F070F4F078F071FF1
:1031A000363E5F4F97474F6F76969FA7AF07A707AB
:1031B0003793C6E6EE070707174F073F08001F03C0
:1031C0000F5A675F071B5F04FF0860A8B301830104
:1031D0008F03CF5C64047F02070003008100C700F7
:1031E000E3CED46C66585004C3046307FFBE063FA9
:1031F0000617C100410C066167565F070F010164A5
:1032000006602EBF071F0F078F0481C60630071008
:1032100007FF079F6707C706410600071807907753
:1032200007CF6707CB06606F078807CC07EFC7CFCC
:1032300007E5072007805F07C66707E707C707E1BD
:103240006F078407C467CF675F57BF4F47A707EF74
:103250009FB79F07209F97974FE70FE747DFD7D785
:103260008F07C70FBF8F078007C407E6EF5F6707A9
:10327000E50760675F5707EFB707E707E15F078478
:10328000BFB75F4F07C757AF4F07C4EF0F9F07E3A5
:1032900007F10740AF5F07E66F575F57076007808A
:1032A00007C60FC7AFB7AFA707204F5707F75F672E
:1032B00007F107A0070007C44F67BFC75F574F4715
:1032C00007C6AF474FA79F074007845707F79FA739
:1032D00007F107A0670704B75F07E30F5F57078091
:1032E000072407C607F3671707B107C06FCE072289
:1032F0005F07F107E107B007D0D707E2066207F9D9
:1033000007F00F079807D807A06FC707F80F6F4F90
:1033100007DC67BFC707FC0F6707E807EC07CE07A6
:10332000DE07C807FE0F175F6707C707CF6F05FFE8
:10333000077F1F2707BFC7078F07E7676F777F875D
:103340008F9747A3AFB7BFC7CFD7DFE7EE07FF0F12
:10335000171F272F373F474F07BF676F777F878F2D
:1033600007EFA717B7BFC7CFD7DFE707AF2707FF1D
:103370000F171F27BF6707F7BF575FD72F37AFB7A5
:10338000DF979FA707BF07CF8F3F0FE7EF07FF0725
:103390009F07EF475707F84F57A707DF07C7B7AF94
:1033A000579F077F07BF07CFDF07F00FB707FF67FC
:1033B00007BD07C0D707E1EF1707FD0779078307A8
:1033C000C70F171F27EF7F07874F078F07CF373F9D
:1033D00007FF2F473F47074F070F0E577F978F97DE
:1033E0003F465E97079F0FE78F8604070697EF0714
:1033F000BF071F77DEE40C078F4F57B7575C640594
:103400000F4F07DF0F6FA4ACB54F9707FF07EFD63D
:1034100084049F9F079707176707F7044704070768
:103420004F070F07CF87D76E565E57078F0787075F
:10343000C707FF06FBBEC6BF5707D707975F5606ED
:10344000070E074FB75F57AFA64E5647078F078740
:1034500007C707FF06FBB6BFAF675F574F460607B4
:103460000F074FB7AFA79F067B0627670747078F52
:10347000078707C707FF766ECF675F5707D74FBE2F
:10348000B60707B7AFA74F97067B06270703074F77
:103490000787078F07C707FF067D7E7707475F7798
:1034A00007975F57CEC74FA7BF479F9706270703CA
:1034B0009F078F0787A707FF077D6E670767675F0F
:1034C00007975F57BEB74F9FB7479F077F062307F2
:1034D00003A7078F0787AF07FF6F062B670767579D
:1034E0005F07975FC70629BF57A7BF4FA7077FA6EC
:1034F0000703A707870FA707FF5F062B5F07675F15
:103500006707975F063F5F07230763BF078F67075C
:103510007F660735074367078707C7CFBFC707150C
:10352000B707A34F6707D7073F071F07550763076D
:1035300083BFC707976F079F0757C75F07C70F1757
:10354000C7574F07A3078757078F0747073FBFB7DF
:10355000675FAF57074F079F071F07AB07670783D3
:1035600007C7CFD76F770757076307875F07CF076F
:103570008FD7DF6707A35FB74777079F0FB74F075F
:103580008307C79FCF575F071707E15F5707870775
:103590008FB7071F07970761C707C36F77079F0795
:1035A0000F075F0760078107C1DFE7C7670757C7D6
:1035B000070007C0670687BFC6075B0761072006CD
:1035C00080770682060F068F766E675FCE6F0607DE
:1035D0004C06F906600540CDC7D5599900F800F0B2
:1035E000E402203F03803101DE01E801F400E0CC79
:1035F000A6AF038F6393BB4900C0A8E807CF07EFCE
:10360000EF07FC07F00FC301806707FF0F07DF27F5
:1036100007FE8707F8B75F67575F7F878F979FA77A
:10362000AF9FBFC7CFD7DFE7EFDFE707FF0F171F5A
:10363000272F07DF0F4F575F676F77474F8F979F92
:10364000A7AFB7BF8FCFD7DFE7EF07FF0FD71F2792
:103650002F373F474F07DF676F777F878F97474F3A
:10366000AFB7BFC7CFD7878FEF07FF0F171F27CF82
:10367000D73F474F575F6707DF0F878F979FA7AFEA
:10368000474FC7CFD7DFE77F878F07FF0F171F276A
:10369000C7CFD7474F575F6707DF0F1707EF9FA7C2
:1036A000AFB74F5707CFDFE7EF07FF979F474FB7FA
:1036B000373FAF77DF878F07C77FEF07EFC7CFD7DA
:1036C000CF4FC73FEF07CF0F07AF07E7A707FF9F12
:1036D0002F5F4F6F4FEF47DF6F9F8F078F9707C7A2
:1036E0009707EFC707CFEF5FEF57E74F1707AF9F7A
:1036F00017974707FF8767AFE75FDF8F47C7A7EFDA
:10370000078FA707A707C79F07CF9707EF676F5FC9
:1037100057EF67DF4707AFB7A79FDF07E70F170729
:103720004F072F078F07A7B7676F770767070FCF79
:10373000072707F707E3D7DF675FD7574F474F07DD
:10374000E7AF074F0707D7979FD7575FDF070F07E9
:1037500067E707F30F07E3BF47A707274F07E167AF
:103760005787970707072307F1B717AFDFEF9F07C3
:10377000034F5707F307E307E70767AF67AFB7BF25
:10378000674F0773A7072307F1DF17BFC73F0783FB
:10379000073107F907F87707F307B307A107010710
:1037A00090677FDF8F07B107814F07C0BFC7DF0773
:1037B000B98F07884F5707FC07F81F07B007840722
:1037C000C8B7EF676F67079207CC07C0EF07F0C76E
:1037D000BF079E07CEEFDFEF07F807FF07DF57CFE2
:1037E00007F297474F574F07CFD707F18F979FA7FC
:1037F000AFA7078F07E3BFE7EF07FF0F171F079F6D
:1038000007C3574F575F676F775707C7979FA7AF94
:10381000B7BF079707CF07F707FF0F171F07BF6748
:103820005F574F575F6747078707EFA79FA7AF8F80
:10383000079F07C707E7EF07FF0F17EF5F5707CF90
:10384000474F5707BF0F078F4F07D79FA7AFEF0708
:10385000DF979FA7CFEF07FF079F575FEF07CF4780
:103860004FEF4F9F37078F8707EF9F07BFA707DFF0
:10387000975FDF27EF373F079F57A76707FF0F8740
:10388000479707CF078F4F07EF67DF9F4F574F07C8
:10389000BF07DFB71797079FAFA71F07D707FF6FB0
:1038A000EF07CF0F0787070707EFC74F575F670778
:1038B000C7576FAFEF9FA797B7BF078307FF07DF14
:1038C00007CF97078707E7BFC767D7DF2797374F28
:1038D00007C3AFA707C70FE7878F9707FF0FEF074C
:1038E0006707A39767A75707EFA70763078307C172
:1038F00007F307E3C707E70F6F0781675F07F10764
:10390000FF07FB2F07B107D08F07F807C01F270756
:10391000FC0794E72707FE0F777F57071007EC4F48
:10392000575F979FA7077E07809FA707FF07BF07DF
:103930009F07E307F80F07FC676F077F071F07C0A4
:103940005F07FEBFC7CFD7DC063F078007E507FF4D
:1039500007F1EF272F370787E7B75F676F77072FE5
:10396000AF6F9FA7AFB7BFC7CFD7079FAF07F0070E
:10397000FF0F171F272F373F474F575F676F07FE10
:103980000F07F9AF8F1F07F307DFD7DF0700070B1C
:103990003F4707BF07FF0F170787078F071F079FBF
:1039A0005F776F7707C73F47AFB707DFBFC707CF5F
:1039B0000F9707BF0F07FF0F1777DF474F57474F87
:1039C00057B7079F8F979F8F979F3FC7CFD7C7CF77
:1039D000D7DF7F07BF0F1707FF0F171F07DFDF5F57
:1039E000676F575F676F77079F0FB7BF7FAFB7BF2F
:1039F000C7CFAF076F00400060E707BF07DF070FC3
:103A0000586060584FEF060798A0A8B0B0079F46CF
:103A1000D8E0E8E0E80000C618202830384048B474
:103A2000586068707880889098A0A8B0B8C0C8D056
:103A3000D8E0E8E8000010182028303840485058F6
:103A40006068707880889098A0A8B0B8C0C8D0D8B6
:103A5000E0E8E8000010182028303840485058604E
:103A600068707880889098A0A8B0B8C0C8D0D800F6
:103A700010E818202830384000805860687078803E
:103A8000889098A0A8B0B8C0C8D0D8E0E8A8B0B8CE
:103A9000C0C8D0D8E0E804000810182428303E46FA
:103AA0004E545E6268707F878F929FA2A8B1C3CF89
:103AB000CBD1DFE3E8018003C01B2301003B1718D3
:103AC0004103E05B7179838B0040414BA1B8C1CBCE
:103AD000D300A08991E9008009131B48D1D901C006
:103AE00048515B632801E043895099A36B7079C307
:103AF000CA9098E3AB0080C3131AD8E0EB01C0482A
:103B0000115B2200403843499059A36A4078838969
:103B1000D099E3AA0060C0C9D3A8E1E9C34000C0BE
:103B20000911004029311B90285101E04871796149
:103B3000D87039A188B0B9A1006008E18920980146
:103B4000C000405058D131003000F8489870A801AA
:103B5000E0090028007C00580060D8106168E80087
:103B6000386068A058A8B0A8B0A0A8003CA000E0A9
:103B700008E8E000684850184850D8E0006000208D
:103B8000A0007830A8D0D840480030003C00E000C9
:103B9000F0A8B048A8580034D848E0E8900020A821
:103BA00048006098D8E0E04800309848E0B8C0305D
:103BB000904048007000F0D0D880001098A0504885
:103BC000C0C8C84048E09098A8707880880030D875
:103BD0000078E8C030D040E000704870001000204D
:103BE0009020A05058C038C80060E0E89800F0B8B5
:103BF000884007B00030C81000F8E090387B04100F
:103C000008003808E0808803B8041809000C90D830
:103C1000C8A80158052C000E000D18D0D880002629
:103C200006D60006000718D8E0300012036F000324
:103C30000810E0E8B82003B7D0D8E0E8D0D80005F5
:103C400007FDC0C8D0D8E0E8D007FF0042788088E0
:103C50009098A04B00B5C0C80008E0E888017DAD91
:103C6000A8B00018002148E0002803FFC0C8003BAE
:103C700000330063004000C26D012DC858002300CE
:103C80006700CE00C605FC05D70080D0003700369F
:103C9000006E00CC01DC07FE00090033687068602C
:103CA000595700030076500034006C004C03FC04AC
:103CB000960001007F0014780024002C75D0E000ED
:103CC0003F001F0013001700350157040308B8C058
:103CD00098586049B4B8000C001E000E0899040FF3
:103CE00004071C40485038055D747C64D06098051A
:103CF0004E041FC4CCE4E05045062E040E5C040CB8
:103D0000041D0000000406A6021C767C060D2A682D
:103D100070024C53AACA02090218C0000800983366
:103D200082021D3A5B5068487B021E0219A2ABA0BA
:103D3000003009D2021C021402314A585800B076F1
:103D40005A0632529AA8A800E0C6043C0622EA02AB
:103D500070A000200060360438062A4462B0585033
:103D6000854C0428BEAAA0A098A594043404220679
:103D700070E8002000600D04386C645C50504855B9
:103D8000444CA404619888909D88003CCC48E0D0C5
:103D9000D802E0D84800220060781018520070A0C5
:103DA00000340061D068A0AA500078003C00620096
:103DB0002000E00815E860007C0022004058606D9B
:103DC0000060C058006A50A8B0BDC00078A84898EC
:103DD00000E00805C02050007CA0004058615570EC
:103DE000A048E88098A195B0E088006A88E0E9DD05
:103DF00000F00078E050D800E00905C05850007C81
:103E0000A8004058616D70A048006C48A0A8B5B8E3
:103E1000E890006E90007000E00D00600078007C7B
:103E2000007600207000F07D90605800365088CAFF
:103E3000510030B0003E0828D80270090038003C1C
:103E400058003F302802F8A858A04098001C784D30
:103E5000982020001F001D48C807BC707048000F44
:103E6000509805BEBE5438444870055F072F7C0447
:103E7000070C141CC8079FC6444E5404036C747E80
:103E8000262E363C444C545E06010E161C262C9CF5
:103E90003E06000E161E242E7E3E464E565E666E72
:103EA000727E868E969EA2AAB3BFC6CED3DBE3E90E
:103EB0000000131B232931018048505B2129313830
:103EC0000040909861687000C040D0D8E028B07081
:103ED000C8889098A068A8B8C0C8D0D8E0E00020F2
:103EE000C8D0D8E0E8383848505860687078808882
:103EF0009098A0A8B0B8C0C8D0D8E0E800001018CA
:103F000020283038404850586068707880889098F1
:103F1000A0A8B0B8C0C8D0D8E0E8E80000101820C9
:103F2000283038404850586068707880889098A051
:103F3000A80020C0C8D0D8E0E8E8484858606870B9
:103F40007880889090A0A8B0B8C0C8D0D8D8E80031
:103F50000010182028300060003058606870780029
:103F600020007000F870B8C0C8D00010504800E8B9
:103F700028D8E0E8E03000B4B10004E0E8E0E82947
:103F800000F000880050E0E8D0D80002399901081C
:103F9000D0D8E0E8D8500264C1C8D0D8E0E8E0004A
:103FA000600071C8D0D8E0E8484800986870788010
:103FB000880020980124B8C0C8D04048500022A8EA
:103FC000B0B8C08890980070B8C0C8D0D0D8E00011
:103FD000B0A0A8B0B8002008100064A8B0B8C048CD
:103FE00050580060A8B0B8C09098A00070C0C8D069
:103FF000D8D8E0003090E8A8B0B800200848D8E849
:10400000A8B0384048880060E8B0B880889038D8B8
:10401000E8B8C0C0C8D000708898A0A800200810D8
:1040200048D0E0E870404850880060A8B0B8889058
:1040300098D040E8C0C8C8D07000308898A0A800C8
:104040002008C0480070E87078485000609848B078
:10405000B8889098408050C0C8C8D0D8B888C8D810
:10406000E0002008C0C80070E040484800606040A0
:10407000185088909040A0808860C8D0788088C010
:1040800000E0D8E8C0C0C8D0007000F000607078D0
:104090001820284000B048B8C06068708881A8B86F
:1040A000C000E0B0B8D088D1E0E84000600800F07F
:1040B000D8298890904850404801B0D0D8D89098DE
:1040C000007098A1C8D000E0E04048E0E868707057
:1040D00000608890007800F0C00020D05800305078
:1040E0005800F8E8001000380810003C007C08D8A0
:1040F0000014001C08003E003F0810D000270023D9
:104100001800670037006F7800110041005100214E
:104110000073800035006D00500810180070080012
:10412000710800D00058181000F00078181000C86E
:1041300000D8081000F8081018018C5001DC780134
:10414000FC60117001CC4911194951596103DE031A
:10415000CEBB132B03FE0B135303C65F636B4F538E
:104160005B07DF07C707CF078F1F07FF0F17475FE3
:10417000574F07474F575F9FA79F07A74F979FA787
:10418000E7EF07C74F0763077F07FF0F4F575F072B
:10419000A35F075F575F9F07C6B707A20743077E66
:1041A000B707FE078E6F176707465F4F574F079E8B
:1041B00067070C075EB7A707FC073C071C0F173EF5
:1041C000474F57067C06786E7606F89FA71F262C69
:1041D000543E474F4F57CCD4DC7DEF07F107F3A790
:1041E00005F00C141D27574F57757C858D9707E3F5
:1041F00007E61FC5CDD5DDE707E25F177505C08D62
:10420000951F4FA707C2C54DD55DE737EF4785BD61
:1042100095CFA7D707C3EFCDA5DDB7EF7F478F05B4
:10422000C0ED157F27C78FD745AD55BF6787CF979F
:1042300085ED9507E0AFCF07C2E7D545E55707C045
:1042400007E257172D953DA74F4797576DD57DE549
:104250008F87D797ADBDBDCDCFC707C35F05C02D35
:10426000153D27D74FA7416D557D6707E297EF8929
:10427000B599C7AFDF07C207E171E38105C09F07AA
:10428000C3AF07C1C943D953EF4FC747BB83C993D6
:10429000DF8F4787EBC7B9D3CFCF87C7EF07C0E919
:1042A000132707C207C74F575966677777475F03DA
:1042B000F0A0AFB7B707C107C30787007001B07F91
:1042C000E707C007815F0783000C00E4E707E80702
:1042D000800723063F061F000E002406F4E777063A
:1042E0008C04FF0C660606071207C4C705F005BC60
:1042F00004FE660702079206C205E405B005F8054C
:10430000FCDF0703074207D20562B96D6107076743
:10431000C747598B01F0B1A707C307610B03C90356
:10432000C0EB01F85F07E167134F635BA105F3037F
:10433000B103F1DF03810B039101824103CD03F946
:10434000EF070002010261010301FF0B67043E0455
:104350001CE0705801FD02FE003F0137009B001F6A
:1043600004050201001E08009F5088800436AE0438
:104370000604220007000F007F00FF059E04FEDCFC
:10438000E4000803C103E37E575F0401ED07C006A4
:10439000C406E43707F1C313073007F07F7FA70790
:1043A00098038103FD9707FC07F806000E044002FE
:1043B00001AB07FF003F0033011F001E886C003E69
:1043C00038019F5078708874002600230007000F82
:1043D000007F00FF00DF0CE8D0000C03C007E1768F
:1043E0007F7707804746064007E407C47F07F00F42
:1043F000073027B7C7970798AFCF07E6E707BC0690
:10440000000CE41C07FF0C003F003B031B001F00D7
:10441000048820019F38407800370033A000470807
:104420000007A0007F0800CF00EF58D00001004136
:1044300001F703FF073F03BFD8000CDB07C0570697
:1044400075EE7FE8078007C40FAEB61FCF478F47D2
:1044500007E6ACBEC76FCFDFE705C604C207C00FD3
:10446000E7EF27EFECA6474FC75F67DF04C4A58FD0
:104470009F9FBFAFCF01CC03886FE77F07009717DF
:104480000318039A3FCF4F575F071057035E8F976C
:104490009FA7AF4F9E071C070AE7EF06000FA6AFC6
:1044A000564F363F464E56EE065C0604868E969E66
:1044B000A606100618060CDEE6EE06000E5E564E48
:1044C0002E363E464E9E968E6E767E878E07080E60
:1044D000071EBEC7CFD7DF4E070C070E07000F170A
:1044E0001F274F5307064F575F07800704039C039E
:1044F000073FAF4F07C207CB07C104C00D171F27E7
:10450000171F07F007380F27575F07FE0F07DE0753
:10451000CE1F07FC4F5707FF0F07DF078F373F47B7
:10452000AF575F4F07CF000F003F0810A9B3BBC3C1
:1045300003EF0007001F68007F0800FF0804F76012
:10454000CCD056D6646E0637AE060F0E8F073F0FDF
:1045500017570707570727E707BF071F77B70787CB
:104560006F072F07FF675FCF07B7078FCF07A75FDB
:10457000BF079F073F675FC7070FB707DF071F6FBB
:10458000BFB7BF078707FFAFB7BFC7078F0F17EFCB
:10459000BFC7079F478F579F06070E060F262E049B
:1045A0000106001E10182028303840485058606816
:1045B000707880889098A0A8B0B8C0C8D0D8E0E83B
:1045C0000000101820283038404850586068707833
:1045D00080889098A0A8B0B8C0C8D0D8E0E8E8001B
:1045E0000010182028303840485058606870788093
:1045F000889098A0A8B0B8C0C8D0D8E0E8E800007B
:1046000010182028303840485058606870788088EA
:104610009098A0A8B0B8C0C8D0D8E0E8E8000010D2
:10462000182028303840485000000000003E5B4F02
:104630005B3E3E6B4F6B3E1C3E7C3E1C183C7E3C02
:10464000181C577D571C1C5E7F5E1C00183C180010
:10465000FFE7C3E7FF0018241800FFE7DBE7FF30A0
:10466000483A060E2629792926407F050507407F0E
:1046700005253F5A3CE73C5A7F3E1C1C08081C1C81
:104680003E7F14227F22145F5F005F5F06097F0177
:104690007F006689956A606060606094A2FFA29462
:1046A00008047E040810207E201008082A1C080830
:1046B0001C2A08081E101010100C1E0C1E0C30387E
:1046C0003E3830060E3E0E06000000000000005F7F
:1046D00000000007000700147F147F14242A7F2A9B
:1046E000122313086462364956205000080703005D
:1046F000001C2241000041221C002A1C7F1C2A08A9
:10470000083E08080080703000080808080800000B
:1047100060600020100804023E5149453E00427F7F
:10472000400072494949462141494D331814127FCE
:104730001027454545393C4A49493141211109076E
:104740003649494936464949291E000014000000EF
:1047500040340000000814224114141414140041C1
:1047600022140802015909063E415D594E7C12117E
:10477000127C7F494949363E414141227F414141B6
:104780003E7F494949417F090909013E4141517331
:104790007F0808087F00417F41002040413F017FA2
:1047A000081422417F404040407F021C027F7F046A
:1047B00008107F3E4141413E7F090909063E4151B3
:1047C000215E7F09192946264949493203017F01A3
:1047D000033F4040403F1F2040201F3F4038403FA4
:1047E000631408146303047804036159494D4300BA
:1047F0007F4141410204081020004141417F0402F1
:104800000102044040404040000307080020545487
:1048100078407F2844443838444444283844442865
:104820007F385454541800087E090218A4A49C78B8
:104830007F0804047800447D40002040403D007F14
:104840001028440000417F40007C047804787C08F4
:104850000404783844444438FC18242418182424C8
:1048600018FC7C08040408485454542404043F44AD
:10487000243C4040207C1C2040201C3C4030403CDC
:1048800044281028444C9090907C4464544C44003C
:1048900008364100000077000000413608000201A0
:1048A0000204023C2623263C1EA1A161123A40408C
:1048B000207A38545455592155557941215454780A
:1048C00041215554784020545579400C1E527212A3
:1048D000395555555939545454593955545458002B
:1048E00000457C410002457D420001457C40F029A5
:1048F0002429F0F0282528F07C54554500205454F4
:104900007C547C0A097F4932494949323248484837
:1049100032324A4848303A4141217A3A424020787E
:10492000009DA0A07D39444444393D4040403D3C79
:1049300024FF2424487E4943662B2FFC2F2BFF099C
:1049400029F620C0887E0903205454794100004490
:104950007D413048484A32384040227A007A0A0A7B
:10496000727D0D19317D2629292F282629292926EE
:1049700030484D4020380808080808080808382F33
:1049800010C8ACBA2F102834FA00007B00000814BD
:104990002A142222142A14089500220095AA0055F0
:1049A00000AAAA55AA55AA000000FF00101010FF87
:1049B00000141414FF001010FF00FF1010F010F08E
:1049C000141414FC001414F700FF0000FF00FF147F
:1049D00014F404FC141417101F10101F101F1414CB
:1049E000141F00101010F0000000001F1010101015
:1049F0001F10101010F010000000FF101010101009
:104A000010101010FF10000000FF140000FF00FF46
:104A100000001F10170000FC04F4141417101714E2
:104A200014F404F40000FF00F71414141414141404
:104A3000F700F7141414171410101F101F14141477
:104A4000F4141010F010F000001F101F0000001FE1
:104A500014000000FC140000F010F01010FF10FF14
:104A6000141414FF141010101F00000000F010FFA9
:104A7000FFFFFFFFF0F0F0F0F0FFFFFF000000008D
:104A800000FFFF0F0F0F0F0F38444438447C2A2AD1
:104A90003E147E02020606027E027E0263554941F2
:104AA000633844443C04407E201E2006027E0202FD
:104AB00099A5E7A5991C2A492A1C4C7201724C3011
:104AC0004A4D4D303048784830BC625A463D3E49E8
:104AD0004949007E0101017E2A2A2A2A2A44445F8C
:104AE000444440514A444040444A51400000FF0180
:104AF00003E080FF000008086B6B0836123624368E
:104B0000060F090F060000181800000010100030F2
:104B100040FF0101001F01011E00191D1712003C7A
:104B20003C3C3C0000000000000000002400270086
:104B30002A002D00300000000000250028002B0076
:104B40002E003100040404040403040502020202DE
:104B50000403020202020606060606060404020216
:104B600002040404080201104080401020408040EC
:104B700080080204018040201002011080102040B3
:104B800040200000000200090F0000030401000C97
:104B90000000000000000000000000000000000015
:104BA00000080B00020202010009040000010202D9
:104BB000000005240010010524010101042402065F
:104BC00005240600010705810310004009040100C7
:104BD000020A0000000705020240000007058302E8
:104BE0004000000403090441726475696E6F204C33
:104BF0004C430041726475626F790012010002003B
:104C0000000040412336800001010203011201002F
:104C100002EF02014041233680000101020301003E
:104C2000163111241FBECFEFDAE0DEBFCDBF25E085
:104C3000A0E4B1E001C01D92A73BB207E1F711E08B
:104C4000A0E0B1E0ECEDF2E602C005900D92A034D8
:104C5000B107D9F716E2C1E1D6E204C02197FE01FF
:104C60000E943731C031D107C9F70E94412E0C9400
:104C70006C310C94000040915301509154012091EB
:104C800051013091520142175307B4F49091E8005A
:104C90009570E1F39091E80092FD19C08093F100C6
:104CA000809153019091540101968F739927892B1C
:104CB00019F48EEF8093E800809153019091540194
:104CC0000196909354018093530181E0089580E010
:104CD0000895CF92DF92EF92FF920F931F93CF939D
:104CE000DF931F92CDB7DEB7182F062FE42E862F45
:104CF000880F8E5F99830E943B2683E00E943B26AB
:104D0000F12EC12E9981D92E8C2D8F19801798F4F0
:104D1000F601E7FE02C0849101C080810E943B261B
:104D2000182F80E00E943B268123FFEFCF1ADF0A75
:104D30008111EACF01C081E00F90DF91CF911F91E7
:104D40000F91FF90EF90DF90CF900895DF92EF9258
:104D5000FF920F931F93CF93DF93D82E8A017B018D
:104D6000E40EF51EEB01CE15DF0571F0D7FE03C092
:104D7000FE01849101C088810E943B262196811109
:104D8000F2CF8FEF9FEF01C0C801DF91CF911F914C
:104D90000F91FF90EF90DF900895615030F02091D7
:104DA000F100FC0120830196F8CF289884E68093D7
:104DB00058010895CF92DF92EF92FF920F931F93C5
:104DC000CF93DF936C017A018B01C0E0D0E0CE1568
:104DD000DF0589F0D8016D918D01D601ED91FC912F
:104DE0000190F081E02DC6010995892B11F47E0117
:104DF00002C02196ECCFC701DF91CF911F910F9197
:104E0000FF90EF90DF90CF900895362F90E0FC0157
:104E1000EE57F44B4491FC01ED59F44B2491FC0105
:104E2000EC5BF44B8491882309F451C04423E1F1F5
:104E300050E0FA013197EF30F105B0F5EA5AFF4F33
:104E40000C943731909180009F7707C0909180003B
:104E50009F7D03C090918000977F9093800024C035
:104E600094B59F7702C094B59F7D94BD1DC090916D
:104E700090009F7707C0909190009F7D03C0909114
:104E80009000977F909390000FC09091C0009F7703
:104E900003C09091C0009F7D9093C00005C0909189
:104EA000C200977F9093C200E82FF0E0EE0FFF1F43
:104EB000EA5CF44BA591B4918FB7F894EC91311161
:104EC00003C020952E2301C02E2B2C938FBF089555
:104ED000CF93DF9390E0FC01ED59F44B2491FC015A
:104EE000EC5BF44B8491882361F190E0880F991F6B
:104EF000FC01E85DF44BC591D491FC01EA5CF44BF4
:104F0000A591B491611109C09FB7F894888120954B
:104F100082238883EC912E230BC0623061F49FB70B
:104F2000F8943881822F809583238883EC912E2BEF
:104F30002C939FBF06C08FB7F894E8812E2B28834F
:104F40008FBFDF91CF9108953FB7F89480914C01C6
:104F500090914D01A0914E01B0914F0126B5A89BB3
:104F600005C02F3F19F00196A11DB11D3FBFBA2FFB
:104F7000A92F982F8827820F911DA11DB11DBC015B
:104F8000CD0142E0660F771F881F991F4A95D1F720
:104F900008952F923F924F925F926F927F928F92DD
:104FA0009F92AF92BF92CF92DF92EF92FF920F93B8
:104FB0001F93CF93DF9300D000D000D0CDB7DEB7E2
:104FC000DC016A30A9F45C962C915C9758968D911F
:104FD0009C91599708E0209F800D911D11245996AE
:104FE0009C938E93589757961C921E925697D1C0B9
:104FF0006D3009F4CEC05C96BC905C975B962C90AB
:105000005B975A963C905A9758962D913C91599798
:105010003C832B8356968D919C91579780389105B0
:10502000C4F05C962C915C97422F50E056968D917F
:105030009C91579736E0239F800D911D1124579620
:105040009C938E9356975D962C915D9721118EC0FF
:10505000A0C00B811C81003411051CF79C0115E0D8
:10506000B19E200D311D112412161306D4F68B2C7F
:10507000912C2B813C8148E0B49E200D311D1124E0
:105080001216130674F6E5E06E9F2001112460E00D
:1050900070E06530710539F0FB01E40DF51DE85D48
:1050A000F94BA49001C0A12CEB80FC8008E0702E8D
:1050B000A0FC02C0622C01C0632C611009C0231047
:1050C00007C0A6947A94E80CF91C7110F1CF45C082
:1050D0009C01422F481B4B15A0F7A701E42FF42F8A
:1050E000FE19FB15B8F52038310588F54034510517
:1050F00070F5E695E695E695CE2ED12C8A010770DF
:1051000011271A830983F601F695FE2FEE27F795EE
:10511000E795E20FF31F8F01065A1E4F1E830D8382
:10512000E1E0F0E0098002C0EE0FFF1F0A94E2F711
:10513000FA83E983662029F0F801D080C980CD2860
:1051400005C0CE2EC094F801D080CD20C0824F5F24
:105150005F4FC4CF2F5F3F4FBCCF6F5F7F4F880D36
:10516000991D6630710509F094CF5BCF6AEF640337
:105170009001659F300D112420583F4F28173907A3
:1051800044F4CD01ED91FC910190F081E02D6AE0B5
:10519000099581E090E026960FB6F894DEBF0FBE29
:1051A000CDBFDF91CF911F910F91FF90EF90DF90D6
:1051B000CF90BF90AF909F908F907F906F905F90B7
:1051C0004F903F902F90089508950F931F93CF9382
:1051D000DF931F92CDB7DEB782E0898342E450E0CF
:1051E00061EA7BE480E80E94A6260E947B2DDC0118
:1051F00012960D911C9113970115110569F0D801B4
:10520000ED91FC910280F381E02DBE016F5F7F4F35
:10521000C801099597FF07C089810F90DF91CF9151
:105220001F910F910895F80100851185E5CF4F92E8
:105230005F926F927F92EF92FF920F931F93CF93A3
:10524000DF93CDB7DEB7A1970FB6F894DEBF0FBEE0
:10525000CDBF7C01FA01CB0119A2223008F42AE06B
:105260008E010F5D1F4F422E512C612C712CBF01FE
:10527000A30192010E944A31F901CA0101501109AA
:105280006A3014F4605D01C0695CD8016C93232B13
:10529000242B252B61F70115110591F0F8010190E0
:1052A0000020E9F73197AF01401B510BD701ED9179
:1052B000FC910280F381E02DB801C701099502C07D
:1052C00080E090E0A1960FB6F894DEBF0FBECDBF90
:1052D000DF91CF911F910F91FF90EF907F906F9092
:1052E0005F904F9008951F920F920FB60F92112466
:1052F000CF92DF92EF92FF920F931F932F933F93E2
:105300004F935F936F937F938F939F93AF93BF93CD
:10531000EF93FF93CF93DF93CDB7DEB76C97DEBFEC
:10532000CDBF1092E9008091E80083FFFAC168E0E8
:10533000CE0145960E94CD2682EF8093E8008D89AC
:1053400087FF05C09091E80090FFFCCF03C09EEF5F
:105350009093E800982F907609F0C6C09E892F8917
:10536000188D91110CC0803829F4809156018093DA
:10537000F10002C01092F1001092F10047C1422FDB
:1053800050E0512B913051F4811140C14130510511
:1053900009F03CC1809156018D7F0BC0933061F4C0
:1053A000811134C14130510509F030C1809156015D
:1053B0008260809356012AC1953041F48091E800C3
:1053C00080FFFCCF20682093E30020C1963009F0D5
:1053D0005FC0EB8CFC8C1092E9001092540110928B
:1053E0005301123091F510925201109251010E9416
:1053F000E52899E0BE016F5F7F4FDB01E92F1D9229
:10540000EA95E9F799831A8391E09E8390EA988759
:105410009AEF99872091530130915401275F3F4FB4
:105420003C832B838D831092E900109254011092DB
:105430005301F0925201E092510149E050E080E0C6
:105440000E94A6260E94E528E1C0F0925201E09257
:1054500051010E947B2DDC011296ED90FC90139778
:10546000E114F10409F4C0C0D701ED91FC9104806E
:10547000F581E02DBE016B5E7F4FC7010995009756
:1054800019F00CF0C3C0C6C0F701E084F184E8CF86
:10549000973009F4BFC0983021F481E08093F10087
:1054A000B5C0993009F0B2C0837009F0B3C0E1E231
:1054B000F1E081E021E036E39081992361F080936F
:1054C000E9002093EB0091919093EC003093ED0074
:1054D0008F5F873089F78EE78093EA001092EA00A9
:1054E0008F898093590192C08B8D9C8D1092E90019
:1054F00010925401109253019093520180935101E4
:10550000898D811156C08E899D89913A59F48132D5
:1055100009F080C047E050E064E071E080E00E9464
:10552000A62674C0913209F075C0833289F4888D43
:1055300090E0982F88272F89822BA0E0B0E08093FD
:10554000000190930101A0930201B09303015EC09A
:10555000803269F48091E80082FFFCCF67E084E04C
:1055600091E00E94CD268BEF8093E80006C0823246
:1055700009F04CC08F8980930B01809155018823DD
:1055800019F0EEEFFAE002C0E0E0F8E080910401EB
:1055900090910501A0910601B0910701803B9440D4
:1055A000A105B10509F088C080910B0180FFA0C062
:1055B00083C00E947B2DDC0112960D911C911397E4
:1055C0000115110539F1D801ED91FC910190F0819F
:1055D000E02DBE016B5E7F4FC8010995811116C099
:1055E000F80100851185ECCF1130C1F0133091F432
:1055F0008F89882309F455C08230E9F440E867E0D8
:1056000083EF9BE40E946926882321F08EEF80932C
:10561000E80087C081E28093EB0083C08B8D9C8D76
:10562000089711F41093500180915001811136C0F8
:105630006BEF7BE438C0813029F440E86BE087EE03
:105640009BE4E0CF833031F70E947B2DDC01129682
:10565000ED90FC9013978E010F5F1F4F6801E114CE
:10566000F10479F0D701ED91FC910680F781E02DEE
:10567000B801C7010995080F111DF701E084F184F5
:10568000EECFD8011C92F60101900020E9F7319786
:10569000BF016C197D0940E0C601B4CF6DE07CE428
:1056A00002C063EE7BE46115710509F4B3CFFB0121
:1056B000449150E080E833CF0FB6F894A8958091DC
:1056C0006000886180936000109260000FBEA89512
:1056D000EE3F2AE0F20739F08091FE0A9091FF0A2E
:1056E0009183808393CF1092FF0A1092FE0A8ECF8F
:1056F000EE3F8AE0F80731F0808191819093FF0AB4
:105700008093FE0A87E797E7918380839BE088E197
:105710000FB6F894A895809360000FBE9093600038
:1057200075CF6C960FB6F894DEBF0FBECDBFDF917C
:10573000CF91FF91EF91BF91AF919F918F917F9109
:105740006F915F914F913F912F911F910F91FF901A
:10575000EF90DF90CF900F900FBE0F901F90189595
:105760008F929F92AF92BF92CF92DF92EF92FF9271
:105770006B017C010E94A4274B015C01C114D10480
:10578000E104F104F1F00E94A427DC01CB018819A7
:105790009909AA09BB09883E9340A105B10570F398
:1057A00021E0C21AD108E108F10888EE880E83E0F2
:1057B000981EA11CB11CC114D104E104F10419F715
:1057C000DDCFFF90EF90DF90CF90BF90AF909F9094
:1057D0008F9008951F920F920FB60F9211242F935E
:1057E0003F938F939F93AF93BF9380914801909184
:1057F0004901A0914A01B0914B013091470123E04A
:10580000230F2D3720F40196A11DB11D05C026E8F8
:10581000230F0296A11DB11D2093470180934801DB
:1058200090934901A0934A01B0934B0180914C01A0
:1058300090914D01A0914E01B0914F010196A11D93
:10584000B11D80934C0190934D01A0934E01B093F4
:105850004F01BF91AF919F918F913F912F910F90E9
:105860000FBE0F901F901895FC0180915901811176
:1058700003C08FEF9FEF08959FB7F89482E0809365
:10588000E9002091F20030E01216130614F421E032
:1058900030E02115310559F0289884E680935801AD
:1058A0008091F10080838091F200882319F09FBFDE
:1058B000C90108958BE68093E800F9CFCF93DF9379
:1058C0001F92CDB7DEB76983DC01ED91FC910280B8
:1058D000F381E02D41E050E0BE016F5F7F4F0995FD
:1058E0000F90DF91CF91089583E08093E90080913C
:1058F000F200882319F08AE38093E8000895CF939B
:10590000DF931F92CDB7DEB7FC018485958597FDA7
:1059100005C02FEF3FEF358724870BC0CE010196DE
:105920000E94342C019719F4898190E002C08FEF16
:105930009FEF0F90DF91CF9108950F931F93CF9317
:10594000DF931F92CDB7DEB78C01FC01848595856E
:1059500097FF0EC0CE0101960E94342C019719F4D6
:10596000298130E002C02FEF3FEFF801358724870F
:10597000F801848595850F90DF91CF911F910F914C
:105980000895FC018485958597FD0BC09FB7F89419
:1059900082E08093E9008091F2009FBF90E0019641
:1059A00008959FB7F89482E08093E9008091F20017
:1059B0009FBF90E008958F929F92AF92BF92CF9237
:1059C000DF92EF92FF920F931F93CF93DF935C01CF
:1059D0006B018A0180910B01882309F45EC08091DC
:1059E0005901882309F459C08091570180FF05C0EF
:1059F0008091E00082608093E000E8018AEFF82E59
:105A000093E0E92E2FE3822E3AE3932E209709F4B8
:105A10003DC08FB7F894E092E9009091E80095FFBF
:105A200006C09091F200282D291B922F01C090E012
:105A30008FBF91110AC0FA94FF2079F161E070E004
:105A400080E090E00E94B02BE1CF292F30E0C21718
:105A5000D3070CF49C2F8FB7F894E092E9002091C3
:105A6000E80025FF11C0292F30E0C21BD30BF6013F
:105A7000915020F041914093F100FACFC20ED31E15
:105A80009091E80095FF13C08FBFC0CF5D9884E66A
:105A900080935A051016110644F081E090E0F5015C
:105AA0009383828380E090E005C0C80103C0909298
:105AB000E800EACFDF91CF911F910F91FF90EF9017
:105AC000DF90CF90BF90AF909F908F9008950E94ED
:105AD0003D3180915A018EBDEBE5F1E081910DB42D
